{
  "contractName": "MultiSigWallet",
  "abi": [
    {
      "inputs": [
        {
          "internalType": "address[]",
          "name": "_owners",
          "type": "address[]"
        },
        {
          "internalType": "uint8",
          "name": "_numConfirmationRequired",
          "type": "uint8"
        }
      ],
      "stateMutability": "nonpayable",
      "type": "constructor"
    },
    {
      "anonymous": false,
      "inputs": [
        {
          "indexed": false,
          "internalType": "uint256",
          "name": "txId",
          "type": "uint256"
        },
        {
          "indexed": false,
          "internalType": "address",
          "name": "owner",
          "type": "address"
        }
      ],
      "name": "ConfirmOwnerForm",
      "type": "event"
    },
    {
      "anonymous": false,
      "inputs": [
        {
          "indexed": false,
          "internalType": "uint256",
          "name": "txId",
          "type": "uint256"
        },
        {
          "indexed": false,
          "internalType": "address",
          "name": "owner",
          "type": "address"
        }
      ],
      "name": "ConfirmTransaction",
      "type": "event"
    },
    {
      "anonymous": false,
      "inputs": [
        {
          "indexed": false,
          "internalType": "address",
          "name": "sender",
          "type": "address"
        },
        {
          "indexed": false,
          "internalType": "uint256",
          "name": "amount",
          "type": "uint256"
        },
        {
          "indexed": false,
          "internalType": "uint256",
          "name": "balance",
          "type": "uint256"
        }
      ],
      "name": "Deposit",
      "type": "event"
    },
    {
      "anonymous": false,
      "inputs": [
        {
          "indexed": false,
          "internalType": "uint256",
          "name": "formId",
          "type": "uint256"
        },
        {
          "indexed": false,
          "internalType": "address",
          "name": "owner",
          "type": "address"
        },
        {
          "indexed": false,
          "internalType": "address",
          "name": "suggesOwner",
          "type": "address"
        }
      ],
      "name": "ExcuteOwnerForm",
      "type": "event"
    },
    {
      "anonymous": false,
      "inputs": [
        {
          "indexed": false,
          "internalType": "uint256",
          "name": "txId",
          "type": "uint256"
        },
        {
          "indexed": false,
          "internalType": "address",
          "name": "owner",
          "type": "address"
        }
      ],
      "name": "ExcuteTransaction",
      "type": "event"
    },
    {
      "anonymous": false,
      "inputs": [
        {
          "indexed": false,
          "internalType": "uint256",
          "name": "txId",
          "type": "uint256"
        },
        {
          "indexed": false,
          "internalType": "address",
          "name": "owner",
          "type": "address"
        }
      ],
      "name": "RevokeConfirmation",
      "type": "event"
    },
    {
      "anonymous": false,
      "inputs": [
        {
          "indexed": false,
          "internalType": "uint256",
          "name": "txId",
          "type": "uint256"
        },
        {
          "indexed": false,
          "internalType": "address",
          "name": "owner",
          "type": "address"
        }
      ],
      "name": "RevokeOwnerFormConfirmation",
      "type": "event"
    },
    {
      "anonymous": false,
      "inputs": [
        {
          "indexed": false,
          "internalType": "address",
          "name": "suggesOwner",
          "type": "address"
        },
        {
          "indexed": false,
          "internalType": "uint256",
          "name": "txId",
          "type": "uint256"
        },
        {
          "indexed": false,
          "internalType": "bytes",
          "name": "desc",
          "type": "bytes"
        },
        {
          "indexed": false,
          "internalType": "uint8",
          "name": "numConfirmationsRequired",
          "type": "uint8"
        },
        {
          "indexed": false,
          "internalType": "uint256",
          "name": "expireTime",
          "type": "uint256"
        },
        {
          "indexed": false,
          "internalType": "bool",
          "name": "isRemovedOwner",
          "type": "bool"
        }
      ],
      "name": "SubmitOwnerForm",
      "type": "event"
    },
    {
      "anonymous": false,
      "inputs": [
        {
          "indexed": false,
          "internalType": "address",
          "name": "owner",
          "type": "address"
        },
        {
          "indexed": false,
          "internalType": "address",
          "name": "to",
          "type": "address"
        },
        {
          "indexed": false,
          "internalType": "uint256",
          "name": "txId",
          "type": "uint256"
        },
        {
          "indexed": false,
          "internalType": "uint256",
          "name": "value",
          "type": "uint256"
        },
        {
          "indexed": false,
          "internalType": "bytes",
          "name": "data",
          "type": "bytes"
        }
      ],
      "name": "SubmitTransaction",
      "type": "event"
    },
    {
      "inputs": [],
      "name": "numConfirmationsRequired",
      "outputs": [
        {
          "internalType": "uint8",
          "name": "",
          "type": "uint8"
        }
      ],
      "stateMutability": "view",
      "type": "function",
      "constant": true
    },
    {
      "inputs": [
        {
          "internalType": "uint256",
          "name": "",
          "type": "uint256"
        }
      ],
      "name": "owners",
      "outputs": [
        {
          "internalType": "address",
          "name": "",
          "type": "address"
        }
      ],
      "stateMutability": "view",
      "type": "function",
      "constant": true
    },
    {
      "inputs": [
        {
          "internalType": "address",
          "name": "_to",
          "type": "address"
        },
        {
          "internalType": "uint64",
          "name": "_value",
          "type": "uint64"
        },
        {
          "internalType": "bytes",
          "name": "_data",
          "type": "bytes"
        }
      ],
      "name": "submitTransaction",
      "outputs": [],
      "stateMutability": "nonpayable",
      "type": "function"
    },
    {
      "inputs": [
        {
          "internalType": "uint256",
          "name": "_txId",
          "type": "uint256"
        }
      ],
      "name": "confirmTransaction",
      "outputs": [],
      "stateMutability": "nonpayable",
      "type": "function"
    },
    {
      "inputs": [
        {
          "internalType": "uint256",
          "name": "_txId",
          "type": "uint256"
        }
      ],
      "name": "revokeTransaction",
      "outputs": [],
      "stateMutability": "nonpayable",
      "type": "function"
    },
    {
      "inputs": [
        {
          "internalType": "uint256",
          "name": "_txId",
          "type": "uint256"
        }
      ],
      "name": "getTransaction",
      "outputs": [
        {
          "internalType": "address",
          "name": "to",
          "type": "address"
        },
        {
          "internalType": "uint64",
          "name": "value",
          "type": "uint64"
        },
        {
          "internalType": "uint8",
          "name": "numConfirmation",
          "type": "uint8"
        },
        {
          "internalType": "bytes",
          "name": "data",
          "type": "bytes"
        },
        {
          "internalType": "bool",
          "name": "excuted",
          "type": "bool"
        }
      ],
      "stateMutability": "view",
      "type": "function",
      "constant": true
    },
    {
      "inputs": [
        {
          "internalType": "bytes",
          "name": "_desc",
          "type": "bytes"
        },
        {
          "internalType": "uint8",
          "name": "_suggNumConfirmRequired",
          "type": "uint8"
        },
        {
          "internalType": "address",
          "name": "_ownerAddress",
          "type": "address"
        },
        {
          "internalType": "bool",
          "name": "_isSubmitRemovedOwnerForm",
          "type": "bool"
        }
      ],
      "name": "submitOwnerForm",
      "outputs": [],
      "stateMutability": "nonpayable",
      "type": "function"
    },
    {
      "inputs": [
        {
          "internalType": "uint256",
          "name": "_formId",
          "type": "uint256"
        }
      ],
      "name": "confirmOwnerForm",
      "outputs": [],
      "stateMutability": "nonpayable",
      "type": "function"
    },
    {
      "inputs": [
        {
          "internalType": "uint256",
          "name": "_formId",
          "type": "uint256"
        }
      ],
      "name": "revokeOwnerForm",
      "outputs": [],
      "stateMutability": "nonpayable",
      "type": "function"
    },
    {
      "inputs": [
        {
          "internalType": "uint256",
          "name": "_formId",
          "type": "uint256"
        }
      ],
      "name": "getOwnerForm",
      "outputs": [
        {
          "internalType": "bytes",
          "name": "_desc",
          "type": "bytes"
        },
        {
          "internalType": "uint8",
          "name": "_numConfirmation",
          "type": "uint8"
        },
        {
          "internalType": "uint8",
          "name": "_numConfirmationsRequired",
          "type": "uint8"
        },
        {
          "internalType": "uint64",
          "name": "_expireTime",
          "type": "uint64"
        },
        {
          "internalType": "bool",
          "name": "_isRemoveOwne",
          "type": "bool"
        },
        {
          "internalType": "bool",
          "name": "_isExpire",
          "type": "bool"
        },
        {
          "internalType": "address",
          "name": "_ownerAddress",
          "type": "address"
        }
      ],
      "stateMutability": "view",
      "type": "function",
      "constant": true
    },
    {
      "inputs": [],
      "name": "getOwnersCount",
      "outputs": [
        {
          "internalType": "uint256",
          "name": "",
          "type": "uint256"
        }
      ],
      "stateMutability": "view",
      "type": "function",
      "constant": true
    }
  ],
  "bytecode": "0x60806040523480156200001157600080fd5b50604051620038d4380380620038d483398181016040528101906200003791906200052b565b60018251116200007e576040517f08c379a00000000000000000000000000000000000000000000000000000000081526004016200007590620005f2565b60405180910390fd5b81518160ff161115801562000096575060008160ff16115b620000d8576040517f08c379a0000000000000000000000000000000000000000000000000000000008152600401620000cf906200068a565b60405180910390fd5b60005b8251811015620002db576000838281518110620000fd57620000fc620006ac565b5b60200260200101519050600073ffffffffffffffffffffffffffffffffffffffff168173ffffffffffffffffffffffffffffffffffffffff160362000179576040517f08c379a000000000000000000000000000000000000000000000000000000000815260040162000170906200072b565b60405180910390fd5b600260008273ffffffffffffffffffffffffffffffffffffffff1673ffffffffffffffffffffffffffffffffffffffff16815260200190815260200160002060009054906101000a900460ff161562000209576040517f08c379a000000000000000000000000000000000000000000000000000000000815260040162000200906200079d565b60405180910390fd5b6001600260008373ffffffffffffffffffffffffffffffffffffffff1673ffffffffffffffffffffffffffffffffffffffff16815260200190815260200160002060006101000a81548160ff0219169083151502179055506000819080600181540180825580915050600190039060005260206000200160009091909190916101000a81548173ffffffffffffffffffffffffffffffffffffffff021916908373ffffffffffffffffffffffffffffffffffffffff160217905550508080620002d290620007f8565b915050620000db565b5080600160006101000a81548160ff021916908360ff160217905550505062000845565b6000604051905090565b600080fd5b600080fd5b600080fd5b6000601f19601f8301169050919050565b7f4e487b7100000000000000000000000000000000000000000000000000000000600052604160045260246000fd5b620003638262000318565b810181811067ffffffffffffffff8211171562000385576200038462000329565b5b80604052505050565b60006200039a620002ff565b9050620003a8828262000358565b919050565b600067ffffffffffffffff821115620003cb57620003ca62000329565b5b602082029050602081019050919050565b600080fd5b600073ffffffffffffffffffffffffffffffffffffffff82169050919050565b60006200040e82620003e1565b9050919050565b620004208162000401565b81146200042c57600080fd5b50565b600081519050620004408162000415565b92915050565b60006200045d6200045784620003ad565b6200038e565b90508083825260208201905060208402830185811115620004835762000482620003dc565b5b835b81811015620004b057806200049b88826200042f565b84526020840193505060208101905062000485565b5050509392505050565b600082601f830112620004d257620004d162000313565b5b8151620004e484826020860162000446565b91505092915050565b600060ff82169050919050565b6200050581620004ed565b81146200051157600080fd5b50565b6000815190506200052581620004fa565b92915050565b6000806040838503121562000545576200054462000309565b5b600083015167ffffffffffffffff8111156200056657620005656200030e565b5b6200057485828601620004ba565b9250506020620005878582860162000514565b9150509250929050565b600082825260208201905092915050565b7f6f776e6572732072657175697265640000000000000000000000000000000000600082015250565b6000620005da600f8362000591565b9150620005e782620005a2565b602082019050919050565b600060208201905081810360008301526200060d81620005cb565b9050919050565b7f696e76616c6964206e756d626572206f6620726571756972656420636f6e666960008201527f726d6174696f6e73000000000000000000000000000000000000000000000000602082015250565b60006200067260288362000591565b91506200067f8262000614565b604082019050919050565b60006020820190508181036000830152620006a58162000663565b9050919050565b7f4e487b7100000000000000000000000000000000000000000000000000000000600052603260045260246000fd5b7f696e76616c6964206f776e657200000000000000000000000000000000000000600082015250565b600062000713600d8362000591565b91506200072082620006db565b602082019050919050565b60006020820190508181036000830152620007468162000704565b9050919050565b7f6f776e6572206e6f7420756e6971756500000000000000000000000000000000600082015250565b60006200078560108362000591565b915062000792826200074d565b602082019050919050565b60006020820190508181036000830152620007b88162000776565b9050919050565b7f4e487b7100000000000000000000000000000000000000000000000000000000600052601160045260246000fd5b6000819050919050565b60006200080582620007ee565b91507fffffffffffffffffffffffffffffffffffffffffffffffffffffffffffffffff82036200083a5762000839620007bf565b5b600182019050919050565b61307f80620008556000396000f3fe608060405234801561001057600080fd5b50600436106100a95760003560e01c8063735631ad11610071578063735631ad1461018057806373ff81cc1461019c578063b7aa030f146101ba578063c01a8c84146101d6578063d0549b85146101f2578063f407bdd014610210576100a9565b8063025e7c27146100ae5780631741a8b7146100de5780631c5851521461011457806333ea3dc8146101305780635698e34214610164575b600080fd5b6100c860048036038101906100c39190611ecc565b61022c565b6040516100d59190611f3a565b60405180910390f35b6100f860048036038101906100f39190611ecc565b61026b565b60405161010b979695949392919061203f565b60405180910390f35b61012e60048036038101906101299190612242565b6104b8565b005b61014a60048036038101906101459190611ecc565b6106a7565b60405161015b9594939291906122b1565b60405180910390f35b61017e60048036038101906101799190611ecc565b61085f565b005b61019a60048036038101906101959190611ecc565b610bbf565b005b6101a4610e78565b6040516101b1919061231a565b60405180910390f35b6101d460048036038101906101cf9190611ecc565b610e84565b005b6101f060048036038101906101eb9190611ecc565b6111aa565b005b6101fa61149d565b6040516102079190612335565b60405180910390f35b61022a600480360381019061022591906123a8565b6114b0565b005b6000818154811061023c57600080fd5b906000526020600020016000915054906101000a900473ffffffffffffffffffffffffffffffffffffffff1681565b6060600080600080600080878060068054905011156102bf576040517f08c379a00000000000000000000000000000000000000000000000000000000081526004016102b690612488565b60405180910390fd5b600060068a815481106102d5576102d46124a8565b5b90600052602060002090600202016040518060e00160405290816000820180546102fe90612506565b80601f016020809104026020016040519081016040528092919081815260200182805461032a90612506565b80156103775780601f1061034c57610100808354040283529160200191610377565b820191906000526020600020905b81548152906001019060200180831161035a57829003601f168201915b505050505081526020016001820160009054906101000a900460ff1660ff1660ff1681526020016001820160019054906101000a900460ff1660ff1660ff1681526020016001820160029054906101000a900467ffffffffffffffff1667ffffffffffffffff1667ffffffffffffffff16815260200160018201600a9054906101000a900460ff1615151515815260200160018201600b9054906101000a900460ff1615151515815260200160018201600c9054906101000a900473ffffffffffffffffffffffffffffffffffffffff1673ffffffffffffffffffffffffffffffffffffffff1673ffffffffffffffffffffffffffffffffffffffff16815250509050806000015181602001518260400151836060015184608001518560a001518660c0015198509850985098509850985098505050919395979092949650565b33600260008273ffffffffffffffffffffffffffffffffffffffff1673ffffffffffffffffffffffffffffffffffffffff16815260200190815260200160002060009054906101000a900460ff1661050f57600080fd5b6000600580549050905060056040518060a001604052808773ffffffffffffffffffffffffffffffffffffffff1681526020018667ffffffffffffffff168152602001600060ff16815260200185815260200160001515815250908060018154018082558091505060019003906000526020600020906003020160009091909190915060008201518160000160006101000a81548173ffffffffffffffffffffffffffffffffffffffff021916908373ffffffffffffffffffffffffffffffffffffffff16021790555060208201518160000160146101000a81548167ffffffffffffffff021916908367ffffffffffffffff160217905550604082015181600001601c6101000a81548160ff021916908360ff160217905550606082015181600101908161063e91906126e3565b5060808201518160020160006101000a81548160ff02191690831515021790555050507f1d7d2ab830f9cb1e20ab181b2efc46ba87bdb7f0dee22f87e780267cd6605ea133868387876040516106989594939291906127e6565b60405180910390a15050505050565b60008060006060600080600587815481106106c5576106c46124a8565b5b90600052602060002090600302016040518060a00160405290816000820160009054906101000a900473ffffffffffffffffffffffffffffffffffffffff1673ffffffffffffffffffffffffffffffffffffffff1673ffffffffffffffffffffffffffffffffffffffff1681526020016000820160149054906101000a900467ffffffffffffffff1667ffffffffffffffff1667ffffffffffffffff16815260200160008201601c9054906101000a900460ff1660ff1660ff16815260200160018201805461079390612506565b80601f01602080910402602001604051908101604052809291908181526020018280546107bf90612506565b801561080c5780601f106107e15761010080835404028352916020019161080c565b820191906000526020600020905b8154815290600101906020018083116107ef57829003601f168201915b505050505081526020016002820160009054906101000a900460ff161515151581525050905080600001518160200151826040015183606001518460800151955095509550955095505091939590929450565b33600260008273ffffffffffffffffffffffffffffffffffffffff1673ffffffffffffffffffffffffffffffffffffffff16815260200190815260200160002060009054906101000a900460ff166108b657600080fd5b818060068054905011156108ff576040517f08c379a00000000000000000000000000000000000000000000000000000000081526004016108f690612488565b60405180910390fd5b82600062093a8042610911919061286f565b905060068281548110610927576109266124a8565b5b906000526020600020906002020160010160029054906101000a900467ffffffffffffffff1667ffffffffffffffff168167ffffffffffffffff1610801561099f57506006828154811061097e5761097d6124a8565b5b9060005260206000209060020201600101600b9054906101000a900460ff16155b6109de576040517f08c379a00000000000000000000000000000000000000000000000000000000081526004016109d5906128ef565b60405180910390fd5b846004600082815260200190815260200160002060003373ffffffffffffffffffffffffffffffffffffffff1673ffffffffffffffffffffffffffffffffffffffff16815260200190815260200160002060009054906101000a900460ff1615610a7d576040517f08c379a0000000000000000000000000000000000000000000000000000000008152600401610a749061295b565b60405180910390fd5b600060068781548110610a9357610a926124a8565b5b9060005260206000209060020201905080600101600081819054906101000a900460ff1680929190610ac49061297b565b91906101000a81548160ff021916908360ff1602179055505060016004600089815260200190815260200160002060003373ffffffffffffffffffffffffffffffffffffffff1673ffffffffffffffffffffffffffffffffffffffff16815260200190815260200160002060006101000a81548160ff0219169083151502179055507f5a465aceb84842f24df3f295fdbcc05c3d0456c97768260476f48efd02f889a28733604051610b779291906129a4565b60405180910390a1600160009054906101000a900460ff1660ff168160010160009054906101000a900460ff1660ff1610610bb657610bb587611907565b5b50505050505050565b33600260008273ffffffffffffffffffffffffffffffffffffffff1673ffffffffffffffffffffffffffffffffffffffff16815260200190815260200160002060009054906101000a900460ff16610c1657600080fd5b81806005805490501115610c5f576040517f08c379a0000000000000000000000000000000000000000000000000000000008152600401610c5690612a19565b60405180910390fd5b8260058181548110610c7457610c736124a8565b5b906000526020600020906003020160020160009054906101000a900460ff1615610cd3576040517f08c379a0000000000000000000000000000000000000000000000000000000008152600401610cca90612a85565b60405180910390fd5b6003600085815260200190815260200160002060003373ffffffffffffffffffffffffffffffffffffffff1673ffffffffffffffffffffffffffffffffffffffff16815260200190815260200160002060009054906101000a900460ff16610d70576040517f08c379a0000000000000000000000000000000000000000000000000000000008152600401610d6790612af1565b60405180910390fd5b600060058581548110610d8657610d856124a8565b5b90600052602060002090600302019050600181600001601c8282829054906101000a900460ff16610db79190612b11565b92506101000a81548160ff021916908360ff16021790555060006003600087815260200190815260200160002060003373ffffffffffffffffffffffffffffffffffffffff1673ffffffffffffffffffffffffffffffffffffffff16815260200190815260200160002060006101000a81548160ff0219169083151502179055507f7f8ce8e4f5a5b480ff78c18404639350996fd63efc83ace55b1d6a3e12158e248533604051610e699291906129a4565b60405180910390a15050505050565b60008080549050905090565b33600260008273ffffffffffffffffffffffffffffffffffffffff1673ffffffffffffffffffffffffffffffffffffffff16815260200190815260200160002060009054906101000a900460ff16610edb57600080fd5b81806006805490501115610f24576040517f08c379a0000000000000000000000000000000000000000000000000000000008152600401610f1b90612488565b60405180910390fd5b82600062093a8042610f36919061286f565b905060068281548110610f4c57610f4b6124a8565b5b906000526020600020906002020160010160029054906101000a900467ffffffffffffffff1667ffffffffffffffff168167ffffffffffffffff16108015610fc4575060068281548110610fa357610fa26124a8565b5b9060005260206000209060020201600101600b9054906101000a900460ff16155b611003576040517f08c379a0000000000000000000000000000000000000000000000000000000008152600401610ffa906128ef565b60405180910390fd5b6004600086815260200190815260200160002060003373ffffffffffffffffffffffffffffffffffffffff1673ffffffffffffffffffffffffffffffffffffffff16815260200190815260200160002060009054906101000a900460ff166110a0576040517f08c379a000000000000000000000000000000000000000000000000000000000815260040161109790612b92565b60405180910390fd5b6000600686815481106110b6576110b56124a8565b5b9060005260206000209060020201905080600101600081819054906101000a900460ff16809291906110e790612bb2565b91906101000a81548160ff021916908360ff1602179055505060006004600088815260200190815260200160002060003373ffffffffffffffffffffffffffffffffffffffff1673ffffffffffffffffffffffffffffffffffffffff16815260200190815260200160002060006101000a81548160ff0219169083151502179055507f1f5bf6fa009bc22d40974f5ce780ffe12780bd693620743c528574a456038f43863360405161119a9291906129a4565b60405180910390a1505050505050565b33600260008273ffffffffffffffffffffffffffffffffffffffff1673ffffffffffffffffffffffffffffffffffffffff16815260200190815260200160002060009054906101000a900460ff1661120157600080fd5b8180600580549050111561124a576040517f08c379a000000000000000000000000000000000000000000000000000000000815260040161124190612a19565b60405180910390fd5b826005818154811061125f5761125e6124a8565b5b906000526020600020906003020160020160009054906101000a900460ff16156112be576040517f08c379a00000000000000000000000000000000000000000000000000000000081526004016112b590612a85565b60405180910390fd5b836003600082815260200190815260200160002060003373ffffffffffffffffffffffffffffffffffffffff1673ffffffffffffffffffffffffffffffffffffffff16815260200190815260200160002060009054906101000a900460ff161561135d576040517f08c379a00000000000000000000000000000000000000000000000000000000081526004016113549061295b565b60405180910390fd5b600060058681548110611373576113726124a8565b5b90600052602060002090600302019050600181600001601c8282829054906101000a900460ff166113a49190612bdb565b92506101000a81548160ff021916908360ff16021790555060016003600088815260200190815260200160002060003373ffffffffffffffffffffffffffffffffffffffff1673ffffffffffffffffffffffffffffffffffffffff16815260200190815260200160002060006101000a81548160ff0219169083151502179055507fcb0f87c749501e9cd0f274dc3a2c62b91b6a4f2909001c6c13663072b739d3d686336040516114569291906129a4565b60405180910390a1600160009054906101000a900460ff1660ff1681600001601c9054906101000a900460ff1660ff16106114955761149486611aaa565b5b505050505050565b600160009054906101000a900460ff1681565b33600260008273ffffffffffffffffffffffffffffffffffffffff1673ffffffffffffffffffffffffffffffffffffffff16815260200190815260200160002060009054906101000a900460ff1661150757600080fd5b8382600080821561152b5760016000805490506115249190612b11565b9150611540565b600160008054905061153d9190612bdb565b91505b60028260ff161015611587576040517f08c379a000000000000000000000000000000000000000000000000000000000815260040161157e90612c5c565b60405180910390fd5b8360ff168260ff16101580156115a0575060018460ff16115b6115df576040517f08c379a00000000000000000000000000000000000000000000000000000000081526004016115d690612cc8565b60405180910390fd5b60006002836115ee9190612d17565b905060008160ff160361161b57600160028461160a9190612d48565b6116149190612bdb565b9150611637565b600260018461162a9190612bdb565b6116349190612d48565b91505b8160ff168560ff161015801561165357508260ff168560ff1611155b611692576040517f08c379a000000000000000000000000000000000000000000000000000000000815260040161168990612cc8565b60405180910390fd5b600073ffffffffffffffffffffffffffffffffffffffff168873ffffffffffffffffffffffffffffffffffffffff1603611701576040517f08c379a00000000000000000000000000000000000000000000000000000000081526004016116f890612dc5565b60405180910390fd5b60006006805490509050600062093a804261171c919061286f565b905060066040518060e001604052808e8152602001600060ff1681526020018d60ff1681526020018367ffffffffffffffff1681526020018b151581526020016000151581526020018c73ffffffffffffffffffffffffffffffffffffffff16815250908060018154018082558091505060019003906000526020600020906002020160009091909190915060008201518160000190816117bd91906126e3565b5060208201518160010160006101000a81548160ff021916908360ff16021790555060408201518160010160016101000a81548160ff021916908360ff16021790555060608201518160010160026101000a81548167ffffffffffffffff021916908367ffffffffffffffff160217905550608082015181600101600a6101000a81548160ff02191690831515021790555060a082015181600101600b6101000a81548160ff02191690831515021790555060c082015181600101600c6101000a81548173ffffffffffffffffffffffffffffffffffffffff021916908373ffffffffffffffffffffffffffffffffffffffff16021790555050507ffbf4f7e069d18b0a9c8e98d53b2cd3c8b9e0fa435604518c96eb783adfec7bb48a838e8e858e6040516118f196959493929190612de5565b60405180910390a1505050505050505050505050565b60006006828154811061191d5761191c6124a8565b5b90600052602060002090600202019050600181600101600b6101000a81548160ff0219169083151502179055508060010160019054906101000a900460ff16600160006101000a81548160ff021916908360ff16021790555080600101600a9054906101000a900460ff16156119bf576119ba81600101600c9054906101000a900473ffffffffffffffffffffffffffffffffffffffff16611da2565b611a47565b600081600101600c9054906101000a900473ffffffffffffffffffffffffffffffffffffffff169080600181540180825580915050600190039060005260206000200160009091909190916101000a81548173ffffffffffffffffffffffffffffffffffffffff021916908373ffffffffffffffffffffffffffffffffffffffff1602179055505b7fa7041fc690ae08a3fa7feae9c1e05ef275c4a05182b2aa978b862595bae4e5b5823383600101600c9054906101000a900473ffffffffffffffffffffffffffffffffffffffff16604051611a9e93929190612e4d565b60405180910390a15050565b33600260008273ffffffffffffffffffffffffffffffffffffffff1673ffffffffffffffffffffffffffffffffffffffff16815260200190815260200160002060009054906101000a900460ff16611b0157600080fd5b81806005805490501115611b4a576040517f08c379a0000000000000000000000000000000000000000000000000000000008152600401611b4190612a19565b60405180910390fd5b8260058181548110611b5f57611b5e6124a8565b5b906000526020600020906003020160020160009054906101000a900460ff1615611bbe576040517f08c379a0000000000000000000000000000000000000000000000000000000008152600401611bb590612a85565b60405180910390fd5b600060058581548110611bd457611bd36124a8565b5b90600052602060002090600302019050600160009054906101000a900460ff1660ff1681600001601c9054906101000a900460ff1660ff161015611c4d576040517f08c379a0000000000000000000000000000000000000000000000000000000008152600401611c4490612ed0565b60405180910390fd5b60018160020160006101000a81548160ff02191690831515021790555060008160000160009054906101000a900473ffffffffffffffffffffffffffffffffffffffff1673ffffffffffffffffffffffffffffffffffffffff168260000160149054906101000a900467ffffffffffffffff1667ffffffffffffffff1683600101604051611cdb9190612f7e565b60006040518083038185875af1925050503d8060008114611d18576040519150601f19603f3d011682016040523d82523d6000602084013e611d1d565b606091505b5050905080611d61576040517f08c379a0000000000000000000000000000000000000000000000000000000008152600401611d5890612fe1565b60405180910390fd5b7f1ba30ad0aef51debe91398f85b9fa35329744ffbbac11ab87f12aa3178d1c6e08633604051611d929291906129a4565b60405180910390a1505050505050565b60005b600080549050811015611e7d578173ffffffffffffffffffffffffffffffffffffffff1660008281548110611ddd57611ddc6124a8565b5b9060005260206000200160009054906101000a900473ffffffffffffffffffffffffffffffffffffffff1673ffffffffffffffffffffffffffffffffffffffff1603611e6a5760008181548110611e3757611e366124a8565b5b9060005260206000200160006101000a81549073ffffffffffffffffffffffffffffffffffffffff021916905550611e7f565b8080611e7590613001565b915050611da5565b505b50565b6000604051905090565b600080fd5b600080fd5b6000819050919050565b611ea981611e96565b8114611eb457600080fd5b50565b600081359050611ec681611ea0565b92915050565b600060208284031215611ee257611ee1611e8c565b5b6000611ef084828501611eb7565b91505092915050565b600073ffffffffffffffffffffffffffffffffffffffff82169050919050565b6000611f2482611ef9565b9050919050565b611f3481611f19565b82525050565b6000602082019050611f4f6000830184611f2b565b92915050565b600081519050919050565b600082825260208201905092915050565b60005b83811015611f8f578082015181840152602081019050611f74565b60008484015250505050565b6000601f19601f8301169050919050565b6000611fb782611f55565b611fc18185611f60565b9350611fd1818560208601611f71565b611fda81611f9b565b840191505092915050565b600060ff82169050919050565b611ffb81611fe5565b82525050565b600067ffffffffffffffff82169050919050565b61201e81612001565b82525050565b60008115159050919050565b61203981612024565b82525050565b600060e0820190508181036000830152612059818a611fac565b90506120686020830189611ff2565b6120756040830188611ff2565b6120826060830187612015565b61208f6080830186612030565b61209c60a0830185612030565b6120a960c0830184611f2b565b98975050505050505050565b6120be81611f19565b81146120c957600080fd5b50565b6000813590506120db816120b5565b92915050565b6120ea81612001565b81146120f557600080fd5b50565b600081359050612107816120e1565b92915050565b600080fd5b600080fd5b7f4e487b7100000000000000000000000000000000000000000000000000000000600052604160045260246000fd5b61214f82611f9b565b810181811067ffffffffffffffff8211171561216e5761216d612117565b5b80604052505050565b6000612181611e82565b905061218d8282612146565b919050565b600067ffffffffffffffff8211156121ad576121ac612117565b5b6121b682611f9b565b9050602081019050919050565b82818337600083830152505050565b60006121e56121e084612192565b612177565b90508281526020810184848401111561220157612200612112565b5b61220c8482856121c3565b509392505050565b600082601f8301126122295761222861210d565b5b81356122398482602086016121d2565b91505092915050565b60008060006060848603121561225b5761225a611e8c565b5b6000612269868287016120cc565b935050602061227a868287016120f8565b925050604084013567ffffffffffffffff81111561229b5761229a611e91565b5b6122a786828701612214565b9150509250925092565b600060a0820190506122c66000830188611f2b565b6122d36020830187612015565b6122e06040830186611ff2565b81810360608301526122f28185611fac565b90506123016080830184612030565b9695505050505050565b61231481611e96565b82525050565b600060208201905061232f600083018461230b565b92915050565b600060208201905061234a6000830184611ff2565b92915050565b61235981611fe5565b811461236457600080fd5b50565b60008135905061237681612350565b92915050565b61238581612024565b811461239057600080fd5b50565b6000813590506123a28161237c565b92915050565b600080600080608085870312156123c2576123c1611e8c565b5b600085013567ffffffffffffffff8111156123e0576123df611e91565b5b6123ec87828801612214565b94505060206123fd87828801612367565b935050604061240e878288016120cc565b925050606061241f87828801612393565b91505092959194509250565b600082825260208201905092915050565b7f666f726d20646f6573206e6f7420657869737400000000000000000000000000600082015250565b600061247260138361242b565b915061247d8261243c565b602082019050919050565b600060208201905081810360008301526124a181612465565b9050919050565b7f4e487b7100000000000000000000000000000000000000000000000000000000600052603260045260246000fd5b7f4e487b7100000000000000000000000000000000000000000000000000000000600052602260045260246000fd5b6000600282049050600182168061251e57607f821691505b602082108103612531576125306124d7565b5b50919050565b60008190508160005260206000209050919050565b60006020601f8301049050919050565b600082821b905092915050565b6000600883026125997fffffffffffffffffffffffffffffffffffffffffffffffffffffffffffffffff8261255c565b6125a3868361255c565b95508019841693508086168417925050509392505050565b6000819050919050565b60006125e06125db6125d684611e96565b6125bb565b611e96565b9050919050565b6000819050919050565b6125fa836125c5565b61260e612606826125e7565b848454612569565b825550505050565b600090565b612623612616565b61262e8184846125f1565b505050565b5b818110156126525761264760008261261b565b600181019050612634565b5050565b601f8211156126975761266881612537565b6126718461254c565b81016020851015612680578190505b61269461268c8561254c565b830182612633565b50505b505050565b600082821c905092915050565b60006126ba6000198460080261269c565b1980831691505092915050565b60006126d383836126a9565b9150826002028217905092915050565b6126ec82611f55565b67ffffffffffffffff81111561270557612704612117565b5b61270f8254612506565b61271a828285612656565b600060209050601f83116001811461274d576000841561273b578287015190505b61274585826126c7565b8655506127ad565b601f19841661275b86612537565b60005b828110156127835784890151825560018201915060208501945060208101905061275e565b868310156127a0578489015161279c601f8916826126a9565b8355505b6001600288020188555050505b505050505050565b60006127d06127cb6127c684612001565b6125bb565b611e96565b9050919050565b6127e0816127b5565b82525050565b600060a0820190506127fb6000830188611f2b565b6128086020830187611f2b565b612815604083018661230b565b61282260608301856127d7565b81810360808301526128348184611fac565b90509695505050505050565b7f4e487b7100000000000000000000000000000000000000000000000000000000600052601160045260246000fd5b600061287a82611e96565b915061288583611e96565b925082820190508082111561289d5761289c612840565b5b92915050565b7f666f726d20646f73206578706972656400000000000000000000000000000000600082015250565b60006128d960108361242b565b91506128e4826128a3565b602082019050919050565b60006020820190508181036000830152612908816128cc565b9050919050565b7f747820616c726561647920636f6e6669726d6564000000000000000000000000600082015250565b600061294560148361242b565b91506129508261290f565b602082019050919050565b6000602082019050818103600083015261297481612938565b9050919050565b600061298682611fe5565b915060ff820361299957612998612840565b5b600182019050919050565b60006040820190506129b9600083018561230b565b6129c66020830184611f2b565b9392505050565b7f747820646f6573206e6f74206578697374000000000000000000000000000000600082015250565b6000612a0360118361242b565b9150612a0e826129cd565b602082019050919050565b60006020820190508181036000830152612a32816129f6565b9050919050565b7f747820616c726561647920657863757465640000000000000000000000000000600082015250565b6000612a6f60128361242b565b9150612a7a82612a39565b602082019050919050565b60006020820190508181036000830152612a9e81612a62565b9050919050565b7f7478206e6f7420636f6e6669726d656400000000000000000000000000000000600082015250565b6000612adb60108361242b565b9150612ae682612aa5565b602082019050919050565b60006020820190508181036000830152612b0a81612ace565b9050919050565b6000612b1c82611fe5565b9150612b2783611fe5565b9250828203905060ff811115612b4057612b3f612840565b5b92915050565b7f6973206e6f7420636f6e6669726d20666f726d00000000000000000000000000600082015250565b6000612b7c60138361242b565b9150612b8782612b46565b602082019050919050565b60006020820190508181036000830152612bab81612b6f565b9050919050565b6000612bbd82611fe5565b915060008203612bd057612bcf612840565b5b600182039050919050565b6000612be682611fe5565b9150612bf183611fe5565b9250828201905060ff811115612c0a57612c09612840565b5b92915050565b7f6d696e206f776e65722069732074776f00000000000000000000000000000000600082015250565b6000612c4660108361242b565b9150612c5182612c10565b602082019050919050565b60006020820190508181036000830152612c7581612c39565b9050919050565b7f6e756d436f6e6669726d5265717569726520697320696e76616c696400000000600082015250565b6000612cb2601c8361242b565b9150612cbd82612c7c565b602082019050919050565b60006020820190508181036000830152612ce181612ca5565b9050919050565b7f4e487b7100000000000000000000000000000000000000000000000000000000600052601260045260246000fd5b6000612d2282611fe5565b9150612d2d83611fe5565b925082612d3d57612d3c612ce8565b5b828206905092915050565b6000612d5382611fe5565b9150612d5e83611fe5565b925082612d6e57612d6d612ce8565b5b828204905092915050565b7f61646472657373206e6f742076616c6964000000000000000000000000000000600082015250565b6000612daf60118361242b565b9150612dba82612d79565b602082019050919050565b60006020820190508181036000830152612dde81612da2565b9050919050565b600060c082019050612dfa6000830189611f2b565b612e07602083018861230b565b8181036040830152612e198187611fac565b9050612e286060830186611ff2565b612e3560808301856127d7565b612e4260a0830184612030565b979650505050505050565b6000606082019050612e62600083018661230b565b612e6f6020830185611f2b565b612e7c6040830184611f2b565b949350505050565b7f63616e6e6f742065786563757465207478000000000000000000000000000000600082015250565b6000612eba60118361242b565b9150612ec582612e84565b602082019050919050565b60006020820190508181036000830152612ee981612ead565b9050919050565b600081905092915050565b60008154612f0881612506565b612f128186612ef0565b94506001821660008114612f2d5760018114612f4257612f75565b60ff1983168652811515820286019350612f75565b612f4b85612537565b60005b83811015612f6d57815481890152600182019150602081019050612f4e565b838801955050505b50505092915050565b6000612f8a8284612efb565b915081905092915050565b7f7478206661696c65640000000000000000000000000000000000000000000000600082015250565b6000612fcb60098361242b565b9150612fd682612f95565b602082019050919050565b60006020820190508181036000830152612ffa81612fbe565b9050919050565b600061300c82611e96565b91507fffffffffffffffffffffffffffffffffffffffffffffffffffffffffffffffff820361303e5761303d612840565b5b60018201905091905056fea264697066735822122032960879e5abc5fc9d2e93d36ccfee0d203e3e9839f1b228e0d503a0e770fd2c64736f6c63430008110033",
  "immutableReferences": {},
  "source": "// SPDX-License-Identifier: MIT\r\npragma solidity ^0.8.17;\r\n\r\ncontract MultiSigWallet {\r\n    event Deposit(address sender, uint256 amount, uint256 balance);\r\n    event ExcuteTransaction(uint256 txId, address owner);\r\n    event RevokeConfirmation(uint256 txId, address owner);\r\n    event ConfirmTransaction(uint256 txId, address owner);\r\n    event ConfirmOwnerForm(uint256 txId, address owner);\r\n    event RevokeOwnerFormConfirmation(uint256 txId, address owner);\r\n    event ExcuteOwnerForm(uint256 formId, address owner, address suggesOwner);\r\n    event SubmitTransaction(\r\n        address owner,\r\n        address to,\r\n        uint256 txId,\r\n        uint256 value,\r\n        bytes data\r\n    );\r\n    event SubmitOwnerForm(\r\n        address suggesOwner,\r\n        uint256 txId,\r\n        bytes desc,\r\n        uint8 numConfirmationsRequired,\r\n        uint256 expireTime,\r\n        bool isRemovedOwner\r\n    );\r\n\r\n    address[] public owners;\r\n    uint8 public numConfirmationsRequired;\r\n    struct Transaction {\r\n        address to;\r\n        uint64 value;\r\n        uint8 numConfirmations;\r\n        bytes data;\r\n        bool executed;\r\n    }\r\n    struct ownerForm {\r\n        bytes desc;\r\n        uint8 numConfirmation;\r\n        uint8 numConfirmationsRequired;\r\n        uint64 expireTime;\r\n        bool isRemoveOwner;\r\n        bool isExpire;\r\n        address ownerAddress;\r\n    }\r\n    mapping(address => bool) isOwner;\r\n    // mapping from tx index => owner => bool\r\n    mapping(uint256 => mapping(address => bool)) isConfirm;\r\n    mapping(uint256 => mapping(address => bool)) isConfirmOwnerForm;\r\n    Transaction[] transactions;\r\n    ownerForm[] ownerForms;\r\n\r\n    modifier onlyOwner(address owner) {\r\n        require(isOwner[owner]);\r\n        _;\r\n    }\r\n    modifier isNotConfirm(uint256 txId) {\r\n        require(!isConfirm[txId][msg.sender], \"tx already confirmed\");\r\n        _;\r\n    }\r\n    modifier isNotExcute(uint256 txId) {\r\n        require(!transactions[txId].executed, \"tx already excuted\");\r\n        _;\r\n    }\r\n    modifier isExistTransaction(uint256 txIndex) {\r\n        require(transactions.length <= txIndex, \"tx does not exist\");\r\n        _;\r\n    }\r\n    modifier isExistForm(uint256 _formId) {\r\n        require(ownerForms.length <= _formId, \"form does not exist\");\r\n        _;\r\n    }\r\n    modifier isNotConfirmOwnerForm(uint256 _formId) {\r\n        require(\r\n            !isConfirmOwnerForm[_formId][msg.sender],\r\n            \"tx already confirmed\"\r\n        );\r\n        _;\r\n    }\r\n    modifier isNotExpireForm(uint256 _formId) {\r\n        uint64 nowTime = uint64((block.timestamp) + 1 weeks);\r\n        require(\r\n            nowTime < ownerForms[_formId].expireTime &&\r\n                !ownerForms[_formId].isExpire,\r\n            \"form dos expired\"\r\n        );\r\n        _;\r\n    }\r\n    modifier isValidNumConfirmaionRequired(\r\n        uint8 _numConfirmRequire,\r\n        bool isRemoved\r\n    ) {\r\n        uint8 ownersNum;\r\n        uint8 minConfrimation;\r\n        if (isRemoved) {\r\n            ownersNum = uint8(owners.length) - 1;\r\n        } else {\r\n            ownersNum = uint8(owners.length) + 1;\r\n        }\r\n        require(ownersNum >= 2, \"min owner is two\");\r\n        require(\r\n            ownersNum >= _numConfirmRequire && _numConfirmRequire > 1,\r\n            \"numConfirmRequire is invalid\"\r\n        );\r\n        uint8 num = ownersNum % 2;\r\n\r\n        if (num == 0) {\r\n            minConfrimation = (ownersNum / 2) + 1;\r\n        } else {\r\n            minConfrimation = (ownersNum + 1) / 2;\r\n        }\r\n        require(\r\n            _numConfirmRequire >= minConfrimation &&\r\n                _numConfirmRequire <= ownersNum,\r\n            \"numConfirmRequire is invalid\"\r\n        );\r\n        _;\r\n    }\r\n\r\n    constructor(address[] memory _owners, uint8 _numConfirmationRequired) {\r\n        require(_owners.length > 1, \"owners required\");\r\n        require(\r\n            _numConfirmationRequired <= _owners.length &&\r\n                _numConfirmationRequired > 0,\r\n            \"invalid number of required confirmations\"\r\n        );\r\n        for (uint256 i = 0; i < _owners.length; i++) {\r\n            address owner = _owners[i];\r\n            require(owner != address(0), \"invalid owner\");\r\n            require(!isOwner[owner], \"owner not unique\");\r\n            isOwner[owner] = true;\r\n            owners.push(owner);\r\n        }\r\n        numConfirmationsRequired = _numConfirmationRequired;\r\n    }\r\n\r\n    function submitTransaction(\r\n        address _to,\r\n        uint64 _value,\r\n        bytes memory _data\r\n    ) public onlyOwner(msg.sender) {\r\n        uint256 txId = transactions.length;\r\n        transactions.push(\r\n            Transaction({\r\n                to: _to,\r\n                value: _value,\r\n                data: _data,\r\n                executed: false,\r\n                numConfirmations: 0\r\n            })\r\n        );\r\n        emit SubmitTransaction(msg.sender, _to, txId, _value, _data);\r\n    }\r\n\r\n    function confirmTransaction(uint256 _txId)\r\n        public\r\n        onlyOwner(msg.sender)\r\n        isExistTransaction(_txId)\r\n        isNotExcute(_txId)\r\n        isNotConfirm(_txId)\r\n    {\r\n        Transaction storage transaction = transactions[_txId];\r\n        transaction.numConfirmations += 1;\r\n        isConfirm[_txId][msg.sender] = true;\r\n        emit ConfirmTransaction(_txId, msg.sender);\r\n        if (transaction.numConfirmations >= numConfirmationsRequired) {\r\n            _excuteTransaction(_txId);\r\n        }\r\n    }\r\n\r\n    function revokeTransaction(uint256 _txId)\r\n        public\r\n        onlyOwner(msg.sender)\r\n        isExistTransaction(_txId)\r\n        isNotExcute(_txId)\r\n    {\r\n        require(isConfirm[_txId][msg.sender], \"tx not confirmed\");\r\n        Transaction storage transaction = transactions[_txId];\r\n        transaction.numConfirmations -= 1;\r\n        isConfirm[_txId][msg.sender] = false;\r\n        emit RevokeConfirmation(_txId, msg.sender);\r\n    }\r\n\r\n    function _excuteTransaction(uint256 _txId)\r\n        private\r\n        onlyOwner(msg.sender)\r\n        isExistTransaction(_txId)\r\n        isNotExcute(_txId)\r\n    {\r\n        Transaction storage transaction = transactions[_txId];\r\n        require(\r\n            transaction.numConfirmations >= numConfirmationsRequired,\r\n            \"cannot execute tx\"\r\n        );\r\n        transaction.executed = true;\r\n        (bool success, ) = transaction.to.call{value: transaction.value}(\r\n            transaction.data\r\n        );\r\n        require(success, \"tx failed\");\r\n        emit ExcuteTransaction(_txId, msg.sender);\r\n    }\r\n\r\n    function getTransaction(uint256 _txId)\r\n        public\r\n        view\r\n        returns (\r\n            address to,\r\n            uint64 value,\r\n            uint8 numConfirmation,\r\n            bytes memory data,\r\n            bool excuted\r\n        )\r\n    {\r\n        Transaction memory transaction = transactions[_txId];\r\n        return (\r\n            transaction.to,\r\n            transaction.value,\r\n            transaction.numConfirmations,\r\n            transaction.data,\r\n            transaction.executed\r\n        );\r\n    }\r\n\r\n    function submitOwnerForm(\r\n        bytes memory _desc,\r\n        uint8 _suggNumConfirmRequired,\r\n        address _ownerAddress,\r\n        bool _isSubmitRemovedOwnerForm\r\n    )\r\n        public\r\n        onlyOwner(msg.sender)\r\n        isValidNumConfirmaionRequired(\r\n            _suggNumConfirmRequired,\r\n            _isSubmitRemovedOwnerForm\r\n        )\r\n    {\r\n        require(_ownerAddress != address(0), \"address not valid\");\r\n        uint256 id = ownerForms.length;\r\n        uint64 expireTime = uint64((block.timestamp) + 1 weeks);\r\n        ownerForms.push(\r\n            ownerForm({\r\n                desc: _desc,\r\n                numConfirmationsRequired: _suggNumConfirmRequired,\r\n                numConfirmation: 0,\r\n                expireTime: expireTime,\r\n                ownerAddress: _ownerAddress,\r\n                isExpire: false,\r\n                isRemoveOwner: _isSubmitRemovedOwnerForm\r\n            })\r\n        );\r\n        emit SubmitOwnerForm(\r\n            _ownerAddress,\r\n            id,\r\n            _desc,\r\n            _suggNumConfirmRequired,\r\n            expireTime,\r\n            _isSubmitRemovedOwnerForm\r\n        );\r\n    }\r\n\r\n    function confirmOwnerForm(uint256 _formId)\r\n        public\r\n        onlyOwner(msg.sender)\r\n        isExistForm(_formId)\r\n        isNotExpireForm(_formId)\r\n        isNotConfirmOwnerForm(_formId)\r\n    {\r\n        ownerForm storage form = ownerForms[_formId];\r\n        form.numConfirmation++;\r\n        isConfirmOwnerForm[_formId][msg.sender] = true;\r\n        emit ConfirmOwnerForm(_formId, msg.sender);\r\n        if (form.numConfirmation >= numConfirmationsRequired) {\r\n            _excuteOwnerForm(_formId);\r\n        }\r\n    }\r\n\r\n    function revokeOwnerForm(uint256 _formId)\r\n        public\r\n        onlyOwner(msg.sender)\r\n        isExistForm(_formId)\r\n        isNotExpireForm(_formId)\r\n    {\r\n        require(isConfirmOwnerForm[_formId][msg.sender], \"is not confirm form\");\r\n        ownerForm storage form = ownerForms[_formId];\r\n        form.numConfirmation--;\r\n        isConfirmOwnerForm[_formId][msg.sender] = false;\r\n        emit RevokeOwnerFormConfirmation(_formId, msg.sender);\r\n    }\r\n\r\n    function _excuteOwnerForm(uint256 _formId) private {\r\n        ownerForm storage form = ownerForms[_formId];\r\n        form.isExpire = true;\r\n        numConfirmationsRequired = form.numConfirmationsRequired;\r\n        if (form.isRemoveOwner) {\r\n            _deleteOwner(form.ownerAddress);\r\n        } else {\r\n            owners.push(form.ownerAddress);\r\n        }\r\n        emit ExcuteOwnerForm(_formId, msg.sender, form.ownerAddress);\r\n    }\r\n\r\n    function _deleteOwner(address _owner) private {\r\n        for (uint256 i = 0; i < owners.length; i++) {\r\n            if (owners[i] == _owner) {\r\n                delete owners[i];\r\n                return;\r\n            }\r\n        }\r\n    }\r\n\r\n    function getOwnerForm(uint256 _formId)\r\n        public\r\n        view\r\n        isExistForm(_formId)\r\n        returns (\r\n            bytes memory _desc,\r\n            uint8 _numConfirmation,\r\n            uint8 _numConfirmationsRequired,\r\n            uint64 _expireTime,\r\n            bool _isRemoveOwne,\r\n            bool _isExpire,\r\n            address _ownerAddress\r\n        )\r\n    {\r\n        ownerForm memory form = ownerForms[_formId];\r\n        return (\r\n            form.desc,\r\n            form.numConfirmation,\r\n            form.numConfirmationsRequired,\r\n            form.expireTime,\r\n            form.isRemoveOwner,\r\n            form.isExpire,\r\n            form.ownerAddress\r\n        );\r\n    }\r\n\r\n    function getOwnersCount() public view returns (uint256) {\r\n        return owners.length;\r\n    }\r\n}\r\n",
  "sourcePath": "F:\\Multi Signature wallet\\contracts\\MultiSigWallet .sol",
  "compiler": {
    "name": "solc",
    "version": "0.8.17+commit.8df45f5f.Emscripten.clang"
  },
  "schemaVersion": "3.4.10",
  "updatedAt": "2022-12-20T22:56:43.246Z",
  "networkType": "ethereum",
  "devdoc": {
    "kind": "dev",
    "methods": {},
    "version": 1
  },
  "userdoc": {
    "kind": "user",
    "methods": {},
    "version": 1
  }
}