{
  "contractName": "MultiSigWallet",
  "abi": [
    {
      "inputs": [
        {
          "internalType": "address[]",
          "name": "_owners",
          "type": "address[]"
        },
        {
          "internalType": "uint8",
          "name": "_numConfirmationRequired",
          "type": "uint8"
        }
      ],
      "stateMutability": "nonpayable",
      "type": "constructor"
    },
    {
      "anonymous": false,
      "inputs": [
        {
          "indexed": false,
          "internalType": "uint256",
          "name": "txId",
          "type": "uint256"
        },
        {
          "indexed": false,
          "internalType": "address",
          "name": "owner",
          "type": "address"
        }
      ],
      "name": "ConfirmOwnerForm",
      "type": "event"
    },
    {
      "anonymous": false,
      "inputs": [
        {
          "indexed": false,
          "internalType": "uint256",
          "name": "txId",
          "type": "uint256"
        },
        {
          "indexed": false,
          "internalType": "address",
          "name": "owner",
          "type": "address"
        },
        {
          "indexed": false,
          "internalType": "uint8",
          "name": "numConfirmations",
          "type": "uint8"
        }
      ],
      "name": "ConfirmTransaction",
      "type": "event"
    },
    {
      "anonymous": false,
      "inputs": [
        {
          "indexed": false,
          "internalType": "address",
          "name": "sender",
          "type": "address"
        },
        {
          "indexed": false,
          "internalType": "uint256",
          "name": "amount",
          "type": "uint256"
        },
        {
          "indexed": false,
          "internalType": "uint256",
          "name": "balance",
          "type": "uint256"
        }
      ],
      "name": "Deposit",
      "type": "event"
    },
    {
      "anonymous": false,
      "inputs": [
        {
          "indexed": false,
          "internalType": "uint256",
          "name": "formId",
          "type": "uint256"
        },
        {
          "indexed": false,
          "internalType": "address",
          "name": "owner",
          "type": "address"
        },
        {
          "indexed": false,
          "internalType": "address",
          "name": "suggesOwner",
          "type": "address"
        }
      ],
      "name": "ExcuteOwnerForm",
      "type": "event"
    },
    {
      "anonymous": false,
      "inputs": [
        {
          "indexed": false,
          "internalType": "uint256",
          "name": "txId",
          "type": "uint256"
        },
        {
          "indexed": false,
          "internalType": "address",
          "name": "owner",
          "type": "address"
        }
      ],
      "name": "ExcuteTransaction",
      "type": "event"
    },
    {
      "anonymous": false,
      "inputs": [
        {
          "indexed": false,
          "internalType": "uint256",
          "name": "txId",
          "type": "uint256"
        },
        {
          "indexed": false,
          "internalType": "address",
          "name": "owner",
          "type": "address"
        }
      ],
      "name": "RevokeConfirmation",
      "type": "event"
    },
    {
      "anonymous": false,
      "inputs": [
        {
          "indexed": false,
          "internalType": "uint256",
          "name": "txId",
          "type": "uint256"
        },
        {
          "indexed": false,
          "internalType": "address",
          "name": "owner",
          "type": "address"
        }
      ],
      "name": "RevokeOwnerFormConfirmation",
      "type": "event"
    },
    {
      "anonymous": false,
      "inputs": [
        {
          "indexed": false,
          "internalType": "address",
          "name": "suggesOwner",
          "type": "address"
        },
        {
          "indexed": false,
          "internalType": "uint256",
          "name": "id",
          "type": "uint256"
        },
        {
          "indexed": false,
          "internalType": "bytes",
          "name": "desc",
          "type": "bytes"
        },
        {
          "indexed": false,
          "internalType": "uint8",
          "name": "numConfirmationsRequired",
          "type": "uint8"
        },
        {
          "indexed": false,
          "internalType": "uint256",
          "name": "expireTime",
          "type": "uint256"
        },
        {
          "indexed": false,
          "internalType": "bool",
          "name": "isRemovedOwner",
          "type": "bool"
        }
      ],
      "name": "SubmitOwnerForm",
      "type": "event"
    },
    {
      "anonymous": false,
      "inputs": [
        {
          "indexed": false,
          "internalType": "address",
          "name": "owner",
          "type": "address"
        },
        {
          "indexed": false,
          "internalType": "address",
          "name": "to",
          "type": "address"
        },
        {
          "indexed": false,
          "internalType": "uint256",
          "name": "txId",
          "type": "uint256"
        },
        {
          "indexed": false,
          "internalType": "uint256",
          "name": "value",
          "type": "uint256"
        },
        {
          "indexed": false,
          "internalType": "bytes",
          "name": "data",
          "type": "bytes"
        },
        {
          "indexed": false,
          "internalType": "uint64",
          "name": "expierTime",
          "type": "uint64"
        }
      ],
      "name": "SubmitTransaction",
      "type": "event"
    },
    {
      "inputs": [],
      "name": "numConfirmationsRequired",
      "outputs": [
        {
          "internalType": "uint8",
          "name": "",
          "type": "uint8"
        }
      ],
      "stateMutability": "view",
      "type": "function"
    },
    {
      "inputs": [
        {
          "internalType": "uint256",
          "name": "",
          "type": "uint256"
        }
      ],
      "name": "owners",
      "outputs": [
        {
          "internalType": "address",
          "name": "",
          "type": "address"
        }
      ],
      "stateMutability": "view",
      "type": "function"
    },
    {
      "inputs": [
        {
          "internalType": "address",
          "name": "_to",
          "type": "address"
        },
        {
          "internalType": "uint64",
          "name": "_value",
          "type": "uint64"
        },
        {
          "internalType": "bytes",
          "name": "_data",
          "type": "bytes"
        }
      ],
      "name": "submitTransaction",
      "outputs": [],
      "stateMutability": "nonpayable",
      "type": "function"
    },
    {
      "inputs": [
        {
          "internalType": "uint256",
          "name": "_txId",
          "type": "uint256"
        }
      ],
      "name": "confirmTransaction",
      "outputs": [],
      "stateMutability": "nonpayable",
      "type": "function"
    },
    {
      "inputs": [
        {
          "internalType": "uint256",
          "name": "_txIndex",
          "type": "uint256"
        }
      ],
      "name": "revokeTransaction",
      "outputs": [],
      "stateMutability": "nonpayable",
      "type": "function"
    },
    {
      "inputs": [
        {
          "internalType": "uint256",
          "name": "_txIndex",
          "type": "uint256"
        }
      ],
      "name": "excuteTransaction",
      "outputs": [],
      "stateMutability": "nonpayable",
      "type": "function"
    },
    {
      "inputs": [
        {
          "internalType": "uint256",
          "name": "_txIndex",
          "type": "uint256"
        }
      ],
      "name": "getTransaction",
      "outputs": [
        {
          "internalType": "address",
          "name": "to",
          "type": "address"
        },
        {
          "internalType": "uint64",
          "name": "value",
          "type": "uint64"
        },
        {
          "internalType": "uint8",
          "name": "numConfirmation",
          "type": "uint8"
        },
        {
          "internalType": "bytes",
          "name": "data",
          "type": "bytes"
        },
        {
          "internalType": "bool",
          "name": "excuted",
          "type": "bool"
        }
      ],
      "stateMutability": "view",
      "type": "function"
    },
    {
      "inputs": [
        {
          "internalType": "bytes",
          "name": "_desc",
          "type": "bytes"
        },
        {
          "internalType": "uint8",
          "name": "_suggNumConfirmRequired",
          "type": "uint8"
        },
        {
          "internalType": "address",
          "name": "_ownerAddress",
          "type": "address"
        },
        {
          "internalType": "bool",
          "name": "_isSubmitRemovedOwnerForm",
          "type": "bool"
        }
      ],
      "name": "submitOwnerForm",
      "outputs": [],
      "stateMutability": "nonpayable",
      "type": "function"
    },
    {
      "inputs": [
        {
          "internalType": "uint256",
          "name": "_formIndex",
          "type": "uint256"
        }
      ],
      "name": "confirmOwnerForm",
      "outputs": [],
      "stateMutability": "nonpayable",
      "type": "function"
    },
    {
      "inputs": [
        {
          "internalType": "uint256",
          "name": "_formIndex",
          "type": "uint256"
        }
      ],
      "name": "revokeOwnerForm",
      "outputs": [],
      "stateMutability": "nonpayable",
      "type": "function"
    },
    {
      "inputs": [
        {
          "internalType": "uint256",
          "name": "_formIndex",
          "type": "uint256"
        }
      ],
      "name": "excuteOwnerForm",
      "outputs": [],
      "stateMutability": "nonpayable",
      "type": "function"
    },
    {
      "inputs": [
        {
          "internalType": "uint256",
          "name": "_formIndex",
          "type": "uint256"
        }
      ],
      "name": "getOwnerForm",
      "outputs": [
        {
          "internalType": "bytes",
          "name": "_desc",
          "type": "bytes"
        },
        {
          "internalType": "uint8",
          "name": "_numConfirmation",
          "type": "uint8"
        },
        {
          "internalType": "uint8",
          "name": "_numConfirmationsRequired",
          "type": "uint8"
        },
        {
          "internalType": "uint64",
          "name": "_expireTime",
          "type": "uint64"
        },
        {
          "internalType": "bool",
          "name": "_isRemoveOwne",
          "type": "bool"
        },
        {
          "internalType": "bool",
          "name": "_executed",
          "type": "bool"
        },
        {
          "internalType": "address",
          "name": "_ownerAddress",
          "type": "address"
        }
      ],
      "stateMutability": "view",
      "type": "function"
    },
    {
      "inputs": [],
      "name": "getOwnersCount",
      "outputs": [
        {
          "internalType": "uint256",
          "name": "",
          "type": "uint256"
        }
      ],
      "stateMutability": "view",
      "type": "function"
    }
  ],
  "bytecode": "0x60806040523480156200001157600080fd5b5060405162003ead38038062003ead83398181016040528101906200003791906200052b565b60018251116200007e576040517f08c379a00000000000000000000000000000000000000000000000000000000081526004016200007590620005f2565b60405180910390fd5b81518160ff161115801562000096575060008160ff16115b620000d8576040517f08c379a0000000000000000000000000000000000000000000000000000000008152600401620000cf906200068a565b60405180910390fd5b60005b8251811015620002db576000838281518110620000fd57620000fc620006ac565b5b60200260200101519050600073ffffffffffffffffffffffffffffffffffffffff168173ffffffffffffffffffffffffffffffffffffffff160362000179576040517f08c379a000000000000000000000000000000000000000000000000000000000815260040162000170906200072b565b60405180910390fd5b600260008273ffffffffffffffffffffffffffffffffffffffff1673ffffffffffffffffffffffffffffffffffffffff16815260200190815260200160002060009054906101000a900460ff161562000209576040517f08c379a000000000000000000000000000000000000000000000000000000000815260040162000200906200079d565b60405180910390fd5b6001600260008373ffffffffffffffffffffffffffffffffffffffff1673ffffffffffffffffffffffffffffffffffffffff16815260200190815260200160002060006101000a81548160ff0219169083151502179055506000819080600181540180825580915050600190039060005260206000200160009091909190916101000a81548173ffffffffffffffffffffffffffffffffffffffff021916908373ffffffffffffffffffffffffffffffffffffffff160217905550508080620002d290620007f8565b915050620000db565b5080600160006101000a81548160ff021916908360ff160217905550505062000845565b6000604051905090565b600080fd5b600080fd5b600080fd5b6000601f19601f8301169050919050565b7f4e487b7100000000000000000000000000000000000000000000000000000000600052604160045260246000fd5b620003638262000318565b810181811067ffffffffffffffff8211171562000385576200038462000329565b5b80604052505050565b60006200039a620002ff565b9050620003a8828262000358565b919050565b600067ffffffffffffffff821115620003cb57620003ca62000329565b5b602082029050602081019050919050565b600080fd5b600073ffffffffffffffffffffffffffffffffffffffff82169050919050565b60006200040e82620003e1565b9050919050565b620004208162000401565b81146200042c57600080fd5b50565b600081519050620004408162000415565b92915050565b60006200045d6200045784620003ad565b6200038e565b90508083825260208201905060208402830185811115620004835762000482620003dc565b5b835b81811015620004b057806200049b88826200042f565b84526020840193505060208101905062000485565b5050509392505050565b600082601f830112620004d257620004d162000313565b5b8151620004e484826020860162000446565b91505092915050565b600060ff82169050919050565b6200050581620004ed565b81146200051157600080fd5b50565b6000815190506200052581620004fa565b92915050565b6000806040838503121562000545576200054462000309565b5b600083015167ffffffffffffffff8111156200056657620005656200030e565b5b6200057485828601620004ba565b9250506020620005878582860162000514565b9150509250929050565b600082825260208201905092915050565b7f6f776e6572732072657175697265640000000000000000000000000000000000600082015250565b6000620005da600f8362000591565b9150620005e782620005a2565b602082019050919050565b600060208201905081810360008301526200060d81620005cb565b9050919050565b7f696e76616c6964206e756d626572206f6620726571756972656420636f6e666960008201527f726d6174696f6e73000000000000000000000000000000000000000000000000602082015250565b60006200067260288362000591565b91506200067f8262000614565b604082019050919050565b60006020820190508181036000830152620006a58162000663565b9050919050565b7f4e487b7100000000000000000000000000000000000000000000000000000000600052603260045260246000fd5b7f696e76616c6964206f776e657200000000000000000000000000000000000000600082015250565b600062000713600d8362000591565b91506200072082620006db565b602082019050919050565b60006020820190508181036000830152620007468162000704565b9050919050565b7f6f776e6572206e6f7420756e6971756500000000000000000000000000000000600082015250565b60006200078560108362000591565b915062000792826200074d565b602082019050919050565b60006020820190508181036000830152620007b88162000776565b9050919050565b7f4e487b7100000000000000000000000000000000000000000000000000000000600052601160045260246000fd5b6000819050919050565b60006200080582620007ee565b91507fffffffffffffffffffffffffffffffffffffffffffffffffffffffffffffffff82036200083a5762000839620007bf565b5b600182019050919050565b61365880620008556000396000f3fe608060405234801561001057600080fd5b50600436106100cf5760003560e01c8063735631ad1161008c578063c01a8c8411610066578063c01a8c8414610218578063d0549b8514610234578063e1a2806814610252578063f407bdd01461026e576100cf565b8063735631ad146101c257806373ff81cc146101de578063b7aa030f146101fc576100cf565b8063025e7c27146100d45780631741a8b7146101045780631c5851521461013a57806333ea3dc8146101565780635059c22b1461018a5780635698e342146101a6575b600080fd5b6100ee60048036038101906100e99190612388565b61028a565b6040516100fb91906123f6565b60405180910390f35b61011e60048036038101906101199190612388565b6102c9565b60405161013197969594939291906124fb565b60405180910390f35b610154600480360381019061014f91906126fe565b610516565b005b610170600480360381019061016b9190612388565b61075a565b60405161018195949392919061276d565b60405180910390f35b6101a4600480360381019061019f9190612388565b610944565b005b6101c060048036038101906101bb9190612388565b610cfe565b005b6101dc60048036038101906101d79190612388565b611052565b005b6101e66113a2565b6040516101f391906127d6565b60405180910390f35b61021660048036038101906102119190612388565b6113ae565b005b610232600480360381019061022d9190612388565b6116ff565b005b61023c611a65565b60405161024991906127f1565b60405180910390f35b61026c60048036038101906102679190612388565b611a78565b005b61028860048036038101906102839190612864565b611e07565b005b6000818154811061029a57600080fd5b906000526020600020016000915054906101000a900473ffffffffffffffffffffffffffffffffffffffff1681565b60606000806000806000808780600680549050101561031d576040517f08c379a000000000000000000000000000000000000000000000000000000000815260040161031490612944565b60405180910390fd5b600060068a8154811061033357610332612964565b5b90600052602060002090600202016040518060e001604052908160008201805461035c906129c2565b80601f0160208091040260200160405190810160405280929190818152602001828054610388906129c2565b80156103d55780601f106103aa576101008083540402835291602001916103d5565b820191906000526020600020905b8154815290600101906020018083116103b857829003601f168201915b505050505081526020016001820160009054906101000a900460ff1660ff1660ff1681526020016001820160019054906101000a900460ff1660ff1660ff1681526020016001820160029054906101000a900467ffffffffffffffff1667ffffffffffffffff1667ffffffffffffffff16815260200160018201600a9054906101000a900460ff1615151515815260200160018201600b9054906101000a900460ff1615151515815260200160018201600c9054906101000a900473ffffffffffffffffffffffffffffffffffffffff1673ffffffffffffffffffffffffffffffffffffffff1673ffffffffffffffffffffffffffffffffffffffff16815250509050806000015181602001518260400151836060015184608001518560a001518660c0015198509850985098509850985098505050919395979092949650565b33600260008273ffffffffffffffffffffffffffffffffffffffff1673ffffffffffffffffffffffffffffffffffffffff16815260200190815260200160002060009054906101000a900460ff1661056d57600080fd5b60006005805490509050600062093a80426105889190612a22565b905060056040518060c001604052808873ffffffffffffffffffffffffffffffffffffffff1681526020018767ffffffffffffffff1681526020018367ffffffffffffffff168152602001600060ff16815260200186815260200160001515815250908060018154018082558091505060019003906000526020600020906004020160009091909190915060008201518160000160006101000a81548173ffffffffffffffffffffffffffffffffffffffff021916908373ffffffffffffffffffffffffffffffffffffffff16021790555060208201518160000160146101000a81548167ffffffffffffffff021916908367ffffffffffffffff16021790555060408201518160010160006101000a81548167ffffffffffffffff021916908367ffffffffffffffff16021790555060608201518160010160086101000a81548160ff021916908360ff16021790555060808201518160020190816106ee9190612c02565b5060a08201518160030160006101000a81548160ff02191690831515021790555050507f6c8369c7b0366f2cf8de5ccf5652ff95b99003d514cc7de14a0afb0f76dbb26d33878488888660405161074a96959493929190612d05565b60405180910390a1505050505050565b600080600060606000806005878154811061077857610777612964565b5b90600052602060002090600402016040518060c00160405290816000820160009054906101000a900473ffffffffffffffffffffffffffffffffffffffff1673ffffffffffffffffffffffffffffffffffffffff1673ffffffffffffffffffffffffffffffffffffffff1681526020016000820160149054906101000a900467ffffffffffffffff1667ffffffffffffffff1667ffffffffffffffff1681526020016001820160009054906101000a900467ffffffffffffffff1667ffffffffffffffff1667ffffffffffffffff1681526020016001820160089054906101000a900460ff1660ff1660ff168152602001600282018054610878906129c2565b80601f01602080910402602001604051908101604052809291908181526020018280546108a4906129c2565b80156108f15780601f106108c6576101008083540402835291602001916108f1565b820191906000526020600020905b8154815290600101906020018083116108d457829003601f168201915b505050505081526020016003820160009054906101000a900460ff161515151581525050905080600001518160200151826060015183608001518460a00151955095509550955095505091939590929450565b33600260008273ffffffffffffffffffffffffffffffffffffffff1673ffffffffffffffffffffffffffffffffffffffff16815260200190815260200160002060009054906101000a900460ff1661099b57600080fd5b818060068054905010156109e4576040517f08c379a00000000000000000000000000000000000000000000000000000000081526004016109db90612944565b60405180910390fd5b826000429050600682815481106109fe576109fd612964565b5b906000526020600020906002020160010160029054906101000a900467ffffffffffffffff1667ffffffffffffffff168167ffffffffffffffff1610610a79576040517f08c379a0000000000000000000000000000000000000000000000000000000008152600401610a7090612db9565b60405180910390fd5b8460068181548110610a8e57610a8d612964565b5b9060005260206000209060020201600101600b9054906101000a900460ff1615610aed576040517f08c379a0000000000000000000000000000000000000000000000000000000008152600401610ae490612e25565b60405180910390fd5b600060068781548110610b0357610b02612964565b5b90600052602060002090600202019050600160009054906101000a900460ff1660ff168160010160009054906101000a900460ff1660ff161015610b7c576040517f08c379a0000000000000000000000000000000000000000000000000000000008152600401610b7390612e91565b60405180910390fd5b600181600101600b6101000a81548160ff0219169083151502179055508060010160019054906101000a900460ff16600160006101000a81548160ff021916908360ff16021790555080600101600a9054906101000a900460ff1615610c0e57610c0981600101600c9054906101000a900473ffffffffffffffffffffffffffffffffffffffff1661225e565b610c96565b600081600101600c9054906101000a900473ffffffffffffffffffffffffffffffffffffffff169080600181540180825580915050600190039060005260206000200160009091909190916101000a81548173ffffffffffffffffffffffffffffffffffffffff021916908373ffffffffffffffffffffffffffffffffffffffff1602179055505b7fa7041fc690ae08a3fa7feae9c1e05ef275c4a05182b2aa978b862595bae4e5b5873383600101600c9054906101000a900473ffffffffffffffffffffffffffffffffffffffff16604051610ced93929190612eb1565b60405180910390a150505050505050565b33600260008273ffffffffffffffffffffffffffffffffffffffff1673ffffffffffffffffffffffffffffffffffffffff16815260200190815260200160002060009054906101000a900460ff16610d5557600080fd5b81806006805490501015610d9e576040517f08c379a0000000000000000000000000000000000000000000000000000000008152600401610d9590612944565b60405180910390fd5b8260068181548110610db357610db2612964565b5b9060005260206000209060020201600101600b9054906101000a900460ff1615610e12576040517f08c379a0000000000000000000000000000000000000000000000000000000008152600401610e0990612e25565b60405180910390fd5b83600042905060068281548110610e2c57610e2b612964565b5b906000526020600020906002020160010160029054906101000a900467ffffffffffffffff1667ffffffffffffffff168167ffffffffffffffff1610610ea7576040517f08c379a0000000000000000000000000000000000000000000000000000000008152600401610e9e90612db9565b60405180910390fd5b856004600082815260200190815260200160002060003373ffffffffffffffffffffffffffffffffffffffff1673ffffffffffffffffffffffffffffffffffffffff16815260200190815260200160002060009054906101000a900460ff1615610f46576040517f08c379a0000000000000000000000000000000000000000000000000000000008152600401610f3d90612f34565b60405180910390fd5b600060068881548110610f5c57610f5b612964565b5b9060005260206000209060020201905080600101600081819054906101000a900460ff1680929190610f8d90612f54565b91906101000a81548160ff021916908360ff160217905550506001600460008a815260200190815260200160002060003373ffffffffffffffffffffffffffffffffffffffff1673ffffffffffffffffffffffffffffffffffffffff16815260200190815260200160002060006101000a81548160ff0219169083151502179055507f5a465aceb84842f24df3f295fdbcc05c3d0456c97768260476f48efd02f889a28833604051611040929190612f7d565b60405180910390a15050505050505050565b33600260008273ffffffffffffffffffffffffffffffffffffffff1673ffffffffffffffffffffffffffffffffffffffff16815260200190815260200160002060009054906101000a900460ff166110a957600080fd5b816000429050600582815481106110c3576110c2612964565b5b906000526020600020906004020160010160009054906101000a900467ffffffffffffffff1667ffffffffffffffff168167ffffffffffffffff161061113e576040517f08c379a000000000000000000000000000000000000000000000000000000000815260040161113590612db9565b60405180910390fd5b83806005805490501015611187576040517f08c379a000000000000000000000000000000000000000000000000000000000815260040161117e90612ff2565b60405180910390fd5b846005818154811061119c5761119b612964565b5b906000526020600020906004020160030160009054906101000a900460ff16156111fb576040517f08c379a00000000000000000000000000000000000000000000000000000000081526004016111f29061305e565b60405180910390fd5b6003600087815260200190815260200160002060003373ffffffffffffffffffffffffffffffffffffffff1673ffffffffffffffffffffffffffffffffffffffff16815260200190815260200160002060009054906101000a900460ff16611298576040517f08c379a000000000000000000000000000000000000000000000000000000000815260040161128f906130ca565b60405180910390fd5b6000600587815481106112ae576112ad612964565b5b9060005260206000209060040201905060018160010160088282829054906101000a900460ff166112df91906130ea565b92506101000a81548160ff021916908360ff16021790555060006003600089815260200190815260200160002060003373ffffffffffffffffffffffffffffffffffffffff1673ffffffffffffffffffffffffffffffffffffffff16815260200190815260200160002060006101000a81548160ff0219169083151502179055507f7f8ce8e4f5a5b480ff78c18404639350996fd63efc83ace55b1d6a3e12158e248733604051611391929190612f7d565b60405180910390a150505050505050565b60008080549050905090565b33600260008273ffffffffffffffffffffffffffffffffffffffff1673ffffffffffffffffffffffffffffffffffffffff16815260200190815260200160002060009054906101000a900460ff1661140557600080fd5b8180600680549050101561144e576040517f08c379a000000000000000000000000000000000000000000000000000000000815260040161144590612944565b60405180910390fd5b8260004290506006828154811061146857611467612964565b5b906000526020600020906002020160010160029054906101000a900467ffffffffffffffff1667ffffffffffffffff168167ffffffffffffffff16106114e3576040517f08c379a00000000000000000000000000000000000000000000000000000000081526004016114da90612db9565b60405180910390fd5b84600681815481106114f8576114f7612964565b5b9060005260206000209060020201600101600b9054906101000a900460ff1615611557576040517f08c379a000000000000000000000000000000000000000000000000000000000815260040161154e90612e25565b60405180910390fd5b6004600087815260200190815260200160002060003373ffffffffffffffffffffffffffffffffffffffff1673ffffffffffffffffffffffffffffffffffffffff16815260200190815260200160002060009054906101000a900460ff166115f4576040517f08c379a00000000000000000000000000000000000000000000000000000000081526004016115eb9061316b565b60405180910390fd5b60006006878154811061160a57611609612964565b5b9060005260206000209060020201905080600101600081819054906101000a900460ff168092919061163b9061318b565b91906101000a81548160ff021916908360ff1602179055505060006004600089815260200190815260200160002060003373ffffffffffffffffffffffffffffffffffffffff1673ffffffffffffffffffffffffffffffffffffffff16815260200190815260200160002060006101000a81548160ff0219169083151502179055507f1f5bf6fa009bc22d40974f5ce780ffe12780bd693620743c528574a456038f4387336040516116ee929190612f7d565b60405180910390a150505050505050565b33600260008273ffffffffffffffffffffffffffffffffffffffff1673ffffffffffffffffffffffffffffffffffffffff16815260200190815260200160002060009054906101000a900460ff1661175657600080fd5b8180600580549050101561179f576040517f08c379a000000000000000000000000000000000000000000000000000000000815260040161179690612ff2565b60405180910390fd5b826000429050600582815481106117b9576117b8612964565b5b906000526020600020906004020160010160009054906101000a900467ffffffffffffffff1667ffffffffffffffff168167ffffffffffffffff1610611834576040517f08c379a000000000000000000000000000000000000000000000000000000000815260040161182b90612db9565b60405180910390fd5b846005818154811061184957611848612964565b5b906000526020600020906004020160030160009054906101000a900460ff16156118a8576040517f08c379a000000000000000000000000000000000000000000000000000000000815260040161189f9061305e565b60405180910390fd5b856003600082815260200190815260200160002060003373ffffffffffffffffffffffffffffffffffffffff1673ffffffffffffffffffffffffffffffffffffffff16815260200190815260200160002060009054906101000a900460ff1615611947576040517f08c379a000000000000000000000000000000000000000000000000000000000815260040161193e90612f34565b60405180910390fd5b60006005888154811061195d5761195c612964565b5b9060005260206000209060040201905060018160010160088282829054906101000a900460ff1661198e91906131b4565b92506101000a81548160ff021916908360ff1602179055506001600360008a815260200190815260200160002060003373ffffffffffffffffffffffffffffffffffffffff1673ffffffffffffffffffffffffffffffffffffffff16815260200190815260200160002060006101000a81548160ff0219169083151502179055507f2e0fc559e0e985ad5c9dc917d3d7da8755b7a5a6664963b2dcb4a50d0ab57d8588338360010160089054906101000a900460ff16604051611a53939291906131e9565b60405180910390a15050505050505050565b600160009054906101000a900460ff1681565b33600260008273ffffffffffffffffffffffffffffffffffffffff1673ffffffffffffffffffffffffffffffffffffffff16815260200190815260200160002060009054906101000a900460ff16611acf57600080fd5b81600042905060058281548110611ae957611ae8612964565b5b906000526020600020906004020160010160009054906101000a900467ffffffffffffffff1667ffffffffffffffff168167ffffffffffffffff1610611b64576040517f08c379a0000000000000000000000000000000000000000000000000000000008152600401611b5b90612db9565b60405180910390fd5b83806005805490501015611bad576040517f08c379a0000000000000000000000000000000000000000000000000000000008152600401611ba490612ff2565b60405180910390fd5b8460058181548110611bc257611bc1612964565b5b906000526020600020906004020160030160009054906101000a900460ff1615611c21576040517f08c379a0000000000000000000000000000000000000000000000000000000008152600401611c189061305e565b60405180910390fd5b600060058781548110611c3757611c36612964565b5b90600052602060002090600402019050600160009054906101000a900460ff1660ff168160010160089054906101000a900460ff1660ff161015611cb0576040517f08c379a0000000000000000000000000000000000000000000000000000000008152600401611ca79061326c565b60405180910390fd5b60018160030160006101000a81548160ff02191690831515021790555060008160000160009054906101000a900473ffffffffffffffffffffffffffffffffffffffff1673ffffffffffffffffffffffffffffffffffffffff168260000160149054906101000a900467ffffffffffffffff1667ffffffffffffffff1683600201604051611d3e919061331a565b60006040518083038185875af1925050503d8060008114611d7b576040519150601f19603f3d011682016040523d82523d6000602084013e611d80565b606091505b5050905080611dc4576040517f08c379a0000000000000000000000000000000000000000000000000000000008152600401611dbb9061337d565b60405180910390fd5b7f1ba30ad0aef51debe91398f85b9fa35329744ffbbac11ab87f12aa3178d1c6e08833604051611df5929190612f7d565b60405180910390a15050505050505050565b33600260008273ffffffffffffffffffffffffffffffffffffffff1673ffffffffffffffffffffffffffffffffffffffff16815260200190815260200160002060009054906101000a900460ff16611e5e57600080fd5b83826000808215611e82576001600080549050611e7b91906130ea565b9150611e97565b6001600080549050611e9491906131b4565b91505b60028260ff161015611ede576040517f08c379a0000000000000000000000000000000000000000000000000000000008152600401611ed5906133e9565b60405180910390fd5b8360ff168260ff1610158015611ef7575060018460ff16115b611f36576040517f08c379a0000000000000000000000000000000000000000000000000000000008152600401611f2d90613455565b60405180910390fd5b6000600283611f4591906134a4565b905060008160ff1603611f72576001600284611f6191906134d5565b611f6b91906131b4565b9150611f8e565b6002600184611f8191906131b4565b611f8b91906134d5565b91505b8160ff168560ff1610158015611faa57508260ff168560ff1611155b611fe9576040517f08c379a0000000000000000000000000000000000000000000000000000000008152600401611fe090613455565b60405180910390fd5b600073ffffffffffffffffffffffffffffffffffffffff168873ffffffffffffffffffffffffffffffffffffffff1603612058576040517f08c379a000000000000000000000000000000000000000000000000000000000815260040161204f90613552565b60405180910390fd5b60006006805490509050600062093a80426120739190612a22565b905060066040518060e001604052808e8152602001600060ff1681526020018d60ff1681526020018367ffffffffffffffff1681526020018b151581526020016000151581526020018c73ffffffffffffffffffffffffffffffffffffffff16815250908060018154018082558091505060019003906000526020600020906002020160009091909190915060008201518160000190816121149190612c02565b5060208201518160010160006101000a81548160ff021916908360ff16021790555060408201518160010160016101000a81548160ff021916908360ff16021790555060608201518160010160026101000a81548167ffffffffffffffff021916908367ffffffffffffffff160217905550608082015181600101600a6101000a81548160ff02191690831515021790555060a082015181600101600b6101000a81548160ff02191690831515021790555060c082015181600101600c6101000a81548173ffffffffffffffffffffffffffffffffffffffff021916908373ffffffffffffffffffffffffffffffffffffffff16021790555050507ffbf4f7e069d18b0a9c8e98d53b2cd3c8b9e0fa435604518c96eb783adfec7bb48a838e8e858e60405161224896959493929190613572565b60405180910390a1505050505050505050505050565b60005b600080549050811015612339578173ffffffffffffffffffffffffffffffffffffffff166000828154811061229957612298612964565b5b9060005260206000200160009054906101000a900473ffffffffffffffffffffffffffffffffffffffff1673ffffffffffffffffffffffffffffffffffffffff160361232657600081815481106122f3576122f2612964565b5b9060005260206000200160006101000a81549073ffffffffffffffffffffffffffffffffffffffff02191690555061233b565b8080612331906135da565b915050612261565b505b50565b6000604051905090565b600080fd5b600080fd5b6000819050919050565b61236581612352565b811461237057600080fd5b50565b6000813590506123828161235c565b92915050565b60006020828403121561239e5761239d612348565b5b60006123ac84828501612373565b91505092915050565b600073ffffffffffffffffffffffffffffffffffffffff82169050919050565b60006123e0826123b5565b9050919050565b6123f0816123d5565b82525050565b600060208201905061240b60008301846123e7565b92915050565b600081519050919050565b600082825260208201905092915050565b60005b8381101561244b578082015181840152602081019050612430565b60008484015250505050565b6000601f19601f8301169050919050565b600061247382612411565b61247d818561241c565b935061248d81856020860161242d565b61249681612457565b840191505092915050565b600060ff82169050919050565b6124b7816124a1565b82525050565b600067ffffffffffffffff82169050919050565b6124da816124bd565b82525050565b60008115159050919050565b6124f5816124e0565b82525050565b600060e0820190508181036000830152612515818a612468565b905061252460208301896124ae565b61253160408301886124ae565b61253e60608301876124d1565b61254b60808301866124ec565b61255860a08301856124ec565b61256560c08301846123e7565b98975050505050505050565b61257a816123d5565b811461258557600080fd5b50565b60008135905061259781612571565b92915050565b6125a6816124bd565b81146125b157600080fd5b50565b6000813590506125c38161259d565b92915050565b600080fd5b600080fd5b7f4e487b7100000000000000000000000000000000000000000000000000000000600052604160045260246000fd5b61260b82612457565b810181811067ffffffffffffffff8211171561262a576126296125d3565b5b80604052505050565b600061263d61233e565b90506126498282612602565b919050565b600067ffffffffffffffff821115612669576126686125d3565b5b61267282612457565b9050602081019050919050565b82818337600083830152505050565b60006126a161269c8461264e565b612633565b9050828152602081018484840111156126bd576126bc6125ce565b5b6126c884828561267f565b509392505050565b600082601f8301126126e5576126e46125c9565b5b81356126f584826020860161268e565b91505092915050565b60008060006060848603121561271757612716612348565b5b600061272586828701612588565b9350506020612736868287016125b4565b925050604084013567ffffffffffffffff8111156127575761275661234d565b5b612763868287016126d0565b9150509250925092565b600060a08201905061278260008301886123e7565b61278f60208301876124d1565b61279c60408301866124ae565b81810360608301526127ae8185612468565b90506127bd60808301846124ec565b9695505050505050565b6127d081612352565b82525050565b60006020820190506127eb60008301846127c7565b92915050565b600060208201905061280660008301846124ae565b92915050565b612815816124a1565b811461282057600080fd5b50565b6000813590506128328161280c565b92915050565b612841816124e0565b811461284c57600080fd5b50565b60008135905061285e81612838565b92915050565b6000806000806080858703121561287e5761287d612348565b5b600085013567ffffffffffffffff81111561289c5761289b61234d565b5b6128a8878288016126d0565b94505060206128b987828801612823565b93505060406128ca87828801612588565b92505060606128db8782880161284f565b91505092959194509250565b600082825260208201905092915050565b7f666f726d20646f6573206e6f7420657869737400000000000000000000000000600082015250565b600061292e6013836128e7565b9150612939826128f8565b602082019050919050565b6000602082019050818103600083015261295d81612921565b9050919050565b7f4e487b7100000000000000000000000000000000000000000000000000000000600052603260045260246000fd5b7f4e487b7100000000000000000000000000000000000000000000000000000000600052602260045260246000fd5b600060028204905060018216806129da57607f821691505b6020821081036129ed576129ec612993565b5b50919050565b7f4e487b7100000000000000000000000000000000000000000000000000000000600052601160045260246000fd5b6000612a2d82612352565b9150612a3883612352565b9250828201905080821115612a5057612a4f6129f3565b5b92915050565b60008190508160005260206000209050919050565b60006020601f8301049050919050565b600082821b905092915050565b600060088302612ab87fffffffffffffffffffffffffffffffffffffffffffffffffffffffffffffffff82612a7b565b612ac28683612a7b565b95508019841693508086168417925050509392505050565b6000819050919050565b6000612aff612afa612af584612352565b612ada565b612352565b9050919050565b6000819050919050565b612b1983612ae4565b612b2d612b2582612b06565b848454612a88565b825550505050565b600090565b612b42612b35565b612b4d818484612b10565b505050565b5b81811015612b7157612b66600082612b3a565b600181019050612b53565b5050565b601f821115612bb657612b8781612a56565b612b9084612a6b565b81016020851015612b9f578190505b612bb3612bab85612a6b565b830182612b52565b50505b505050565b600082821c905092915050565b6000612bd960001984600802612bbb565b1980831691505092915050565b6000612bf28383612bc8565b9150826002028217905092915050565b612c0b82612411565b67ffffffffffffffff811115612c2457612c236125d3565b5b612c2e82546129c2565b612c39828285612b75565b600060209050601f831160018114612c6c5760008415612c5a578287015190505b612c648582612be6565b865550612ccc565b601f198416612c7a86612a56565b60005b82811015612ca257848901518255600182019150602085019450602081019050612c7d565b86831015612cbf5784890151612cbb601f891682612bc8565b8355505b6001600288020188555050505b505050505050565b6000612cef612cea612ce5846124bd565b612ada565b612352565b9050919050565b612cff81612cd4565b82525050565b600060c082019050612d1a60008301896123e7565b612d2760208301886123e7565b612d3460408301876127c7565b612d416060830186612cf6565b8181036080830152612d538185612468565b9050612d6260a08301846124d1565b979650505050505050565b7f666f726d20646f73206578706972656400000000000000000000000000000000600082015250565b6000612da36010836128e7565b9150612dae82612d6d565b602082019050919050565b60006020820190508181036000830152612dd281612d96565b9050919050565b7f666f726d20616c72656164792065786375746564000000000000000000000000600082015250565b6000612e0f6014836128e7565b9150612e1a82612dd9565b602082019050919050565b60006020820190508181036000830152612e3e81612e02565b9050919050565b7f6e6f7420636f6e6669726d20656e6f7567680000000000000000000000000000600082015250565b6000612e7b6012836128e7565b9150612e8682612e45565b602082019050919050565b60006020820190508181036000830152612eaa81612e6e565b9050919050565b6000606082019050612ec660008301866127c7565b612ed360208301856123e7565b612ee060408301846123e7565b949350505050565b7f747820616c726561647920636f6e6669726d6564000000000000000000000000600082015250565b6000612f1e6014836128e7565b9150612f2982612ee8565b602082019050919050565b60006020820190508181036000830152612f4d81612f11565b9050919050565b6000612f5f826124a1565b915060ff8203612f7257612f716129f3565b5b600182019050919050565b6000604082019050612f9260008301856127c7565b612f9f60208301846123e7565b9392505050565b7f747820646f6573206e6f74206578697374000000000000000000000000000000600082015250565b6000612fdc6011836128e7565b9150612fe782612fa6565b602082019050919050565b6000602082019050818103600083015261300b81612fcf565b9050919050565b7f747820616c726561647920657863757465640000000000000000000000000000600082015250565b60006130486012836128e7565b915061305382613012565b602082019050919050565b600060208201905081810360008301526130778161303b565b9050919050565b7f7478206e6f7420636f6e6669726d656400000000000000000000000000000000600082015250565b60006130b46010836128e7565b91506130bf8261307e565b602082019050919050565b600060208201905081810360008301526130e3816130a7565b9050919050565b60006130f5826124a1565b9150613100836124a1565b9250828203905060ff811115613119576131186129f3565b5b92915050565b7f6973206e6f7420636f6e6669726d20666f726d00000000000000000000000000600082015250565b60006131556013836128e7565b91506131608261311f565b602082019050919050565b6000602082019050818103600083015261318481613148565b9050919050565b6000613196826124a1565b9150600082036131a9576131a86129f3565b5b600182039050919050565b60006131bf826124a1565b91506131ca836124a1565b9250828201905060ff8111156131e3576131e26129f3565b5b92915050565b60006060820190506131fe60008301866127c7565b61320b60208301856123e7565b61321860408301846124ae565b949350505050565b7f63616e6e6f742065786563757465207478000000000000000000000000000000600082015250565b60006132566011836128e7565b915061326182613220565b602082019050919050565b6000602082019050818103600083015261328581613249565b9050919050565b600081905092915050565b600081546132a4816129c2565b6132ae818661328c565b945060018216600081146132c957600181146132de57613311565b60ff1983168652811515820286019350613311565b6132e785612a56565b60005b83811015613309578154818901526001820191506020810190506132ea565b838801955050505b50505092915050565b60006133268284613297565b915081905092915050565b7f7478206661696c65640000000000000000000000000000000000000000000000600082015250565b60006133676009836128e7565b915061337282613331565b602082019050919050565b600060208201905081810360008301526133968161335a565b9050919050565b7f6d696e206f776e65722069732074776f00000000000000000000000000000000600082015250565b60006133d36010836128e7565b91506133de8261339d565b602082019050919050565b60006020820190508181036000830152613402816133c6565b9050919050565b7f6e756d436f6e6669726d5265717569726520697320696e76616c696400000000600082015250565b600061343f601c836128e7565b915061344a82613409565b602082019050919050565b6000602082019050818103600083015261346e81613432565b9050919050565b7f4e487b7100000000000000000000000000000000000000000000000000000000600052601260045260246000fd5b60006134af826124a1565b91506134ba836124a1565b9250826134ca576134c9613475565b5b828206905092915050565b60006134e0826124a1565b91506134eb836124a1565b9250826134fb576134fa613475565b5b828204905092915050565b7f61646472657373206e6f742076616c6964000000000000000000000000000000600082015250565b600061353c6011836128e7565b915061354782613506565b602082019050919050565b6000602082019050818103600083015261356b8161352f565b9050919050565b600060c08201905061358760008301896123e7565b61359460208301886127c7565b81810360408301526135a68187612468565b90506135b560608301866124ae565b6135c26080830185612cf6565b6135cf60a08301846124ec565b979650505050505050565b60006135e582612352565b91507fffffffffffffffffffffffffffffffffffffffffffffffffffffffffffffffff8203613617576136166129f3565b5b60018201905091905056fea26469706673582212209a20aef051bca2a6da786fe454ad9ed93f005625bdb5415d5556205ac828ea7964736f6c63430008110033",
  "immutableReferences": {},
  "source": "// SPDX-License-Identifier: MIT\r\npragma solidity ^0.8.17;\r\n\r\ncontract MultiSigWallet {\r\n    event Deposit(address sender, uint256 amount, uint256 balance);\r\n    event ExcuteTransaction(uint256 txId, address owner);\r\n    event RevokeConfirmation(uint256 txId, address owner);\r\n    event ConfirmTransaction(\r\n        uint256 txId,\r\n        address owner,\r\n        uint8 numConfirmations\r\n    );\r\n    event ConfirmOwnerForm(uint256 txId, address owner);\r\n    event RevokeOwnerFormConfirmation(uint256 txId, address owner);\r\n    event ExcuteOwnerForm(uint256 formId, address owner, address suggesOwner);\r\n    event SubmitTransaction(\r\n        address owner,\r\n        address to,\r\n        uint256 txId,\r\n        uint256 value,\r\n        bytes data,\r\n        uint64 expierTime\r\n    );\r\n    event SubmitOwnerForm(\r\n        address suggesOwner,\r\n        uint256 id,\r\n        bytes desc,\r\n        uint8 numConfirmationsRequired,\r\n        uint256 expireTime,\r\n        bool isRemovedOwner\r\n    );\r\n\r\n    address[] public owners;\r\n    uint8 public numConfirmationsRequired;\r\n    struct Transaction {\r\n        address to;\r\n        uint64 value;\r\n        uint64 expireTime;\r\n        uint8 numConfirmations;\r\n        bytes data;\r\n        bool executed;\r\n    }\r\n    struct ownerForm {\r\n        bytes desc;\r\n        uint8 numConfirmation;\r\n        uint8 numConfirmationsRequired;\r\n        uint64 expireTime;\r\n        bool isRemoveOwner;\r\n        bool executed;\r\n        address ownerAddress;\r\n    }\r\n    mapping(address => bool) isOwner;\r\n    // mapping from tx index => owner => bool\r\n    mapping(uint256 => mapping(address => bool)) isConfirm;\r\n    mapping(uint256 => mapping(address => bool)) isConfirmOwnerForm;\r\n    Transaction[] transactions;\r\n    ownerForm[] ownerForms;\r\n\r\n    modifier onlyOwner(address owner) {\r\n        require(isOwner[owner]);\r\n        _;\r\n    }\r\n    modifier isNotConfirm(uint256 txIndex) {\r\n        require(!isConfirm[txIndex][msg.sender], \"tx already confirmed\");\r\n        _;\r\n    }\r\n    modifier isNotExcute(uint256 txIndex) {\r\n        require(!transactions[txIndex].executed, \"tx already excuted\");\r\n        _;\r\n    }\r\n    modifier isNotExpire(uint256 txIndex) {\r\n        uint64 nowTime = uint64(block.timestamp);\r\n        require(nowTime < transactions[txIndex].expireTime, \"form dos expired\");\r\n        _;\r\n    }\r\n    modifier isExistTransaction(uint256 txIndex) {\r\n        require(transactions.length >= txIndex, \"tx does not exist\");\r\n        _;\r\n    }\r\n    modifier isExistForm(uint256 formIndex) {\r\n        require(ownerForms.length >= formIndex, \"form does not exist\");\r\n        _;\r\n    }\r\n    modifier isNotConfirmOwnerForm(uint256 formIndex) {\r\n        require(\r\n            !isConfirmOwnerForm[formIndex][msg.sender],\r\n            \"tx already confirmed\"\r\n        );\r\n        _;\r\n    }\r\n    modifier isNotExpireForm(uint256 formIndex) {\r\n        uint64 nowTime = uint64(block.timestamp);\r\n        require(nowTime < ownerForms[formIndex].expireTime, \"form dos expired\");\r\n        _;\r\n    }\r\n    modifier isNotExcuteOwnerForm(uint256 formIndex) {\r\n        require(!ownerForms[formIndex].executed, \"form already excuted\");\r\n        _;\r\n    }\r\n    modifier isValidNumConfirmaionRequired(\r\n        uint8 numConfirmRequire,\r\n        bool isRemoved\r\n    ) {\r\n        uint8 ownersNum;\r\n        uint8 minConfrimation;\r\n        if (isRemoved) {\r\n            ownersNum = uint8(owners.length) - 1;\r\n        } else {\r\n            ownersNum = uint8(owners.length) + 1;\r\n        }\r\n        require(ownersNum >= 2, \"min owner is two\");\r\n        require(\r\n            ownersNum >= numConfirmRequire && numConfirmRequire > 1,\r\n            \"numConfirmRequire is invalid\"\r\n        );\r\n        uint8 num = ownersNum % 2;\r\n\r\n        if (num == 0) {\r\n            minConfrimation = (ownersNum / 2) + 1;\r\n        } else {\r\n            minConfrimation = (ownersNum + 1) / 2;\r\n        }\r\n        require(\r\n            numConfirmRequire >= minConfrimation &&\r\n                numConfirmRequire <= ownersNum,\r\n            \"numConfirmRequire is invalid\"\r\n        );\r\n        _;\r\n    }\r\n\r\n    constructor(address[] memory _owners, uint8 _numConfirmationRequired) {\r\n        require(_owners.length > 1, \"owners required\");\r\n        require(\r\n            _numConfirmationRequired <= _owners.length &&\r\n                _numConfirmationRequired > 0,\r\n            \"invalid number of required confirmations\"\r\n        );\r\n        for (uint256 i = 0; i < _owners.length; i++) {\r\n            address owner = _owners[i];\r\n            require(owner != address(0), \"invalid owner\");\r\n            require(!isOwner[owner], \"owner not unique\");\r\n            isOwner[owner] = true;\r\n            owners.push(owner);\r\n        }\r\n        numConfirmationsRequired = _numConfirmationRequired;\r\n    }\r\n\r\n    function submitTransaction(\r\n        address _to,\r\n        uint64 _value,\r\n        bytes memory _data\r\n    ) public onlyOwner(msg.sender) {\r\n        uint256 txId = transactions.length;\r\n        uint64 expireTime = uint64((block.timestamp) + 1 weeks);\r\n        transactions.push(\r\n            Transaction({\r\n                to: _to,\r\n                value: _value,\r\n                expireTime: expireTime,\r\n                data: _data,\r\n                executed: false,\r\n                numConfirmations: 0\r\n            })\r\n        );\r\n        emit SubmitTransaction(\r\n            msg.sender,\r\n            _to,\r\n            txId,\r\n            _value,\r\n            _data,\r\n            expireTime\r\n        );\r\n    }\r\n\r\n    function confirmTransaction(uint256 _txId)\r\n        public\r\n        onlyOwner(msg.sender)\r\n        isExistTransaction(_txId)\r\n        isNotExpire(_txId)\r\n        isNotExcute(_txId)\r\n        isNotConfirm(_txId)\r\n    {\r\n        Transaction storage transaction = transactions[_txId];\r\n        transaction.numConfirmations += 1;\r\n        isConfirm[_txId][msg.sender] = true;\r\n        emit ConfirmTransaction(\r\n            _txId,\r\n            msg.sender,\r\n            transaction.numConfirmations\r\n        );\r\n    }\r\n\r\n    function revokeTransaction(uint256 _txIndex)\r\n        public\r\n        onlyOwner(msg.sender)\r\n        isNotExpire(_txIndex)\r\n        isExistTransaction(_txIndex)\r\n        isNotExcute(_txIndex)\r\n    {\r\n        require(isConfirm[_txIndex][msg.sender], \"tx not confirmed\");\r\n        Transaction storage transaction = transactions[_txIndex];\r\n        transaction.numConfirmations -= 1;\r\n        isConfirm[_txIndex][msg.sender] = false;\r\n        emit RevokeConfirmation(_txIndex, msg.sender);\r\n    }\r\n\r\n    function excuteTransaction(uint256 _txIndex)\r\n        public\r\n        onlyOwner(msg.sender)\r\n        isNotExpire(_txIndex)\r\n        isExistTransaction(_txIndex)\r\n        isNotExcute(_txIndex)\r\n    {\r\n        Transaction storage transaction = transactions[_txIndex];\r\n        require(\r\n            transaction.numConfirmations >= numConfirmationsRequired,\r\n            \"cannot execute tx\"\r\n        );\r\n        transaction.executed = true;\r\n        (bool success, ) = transaction.to.call{value: transaction.value}(\r\n            transaction.data\r\n        );\r\n\r\n        require(success, \"tx failed\");\r\n        emit ExcuteTransaction(_txIndex, msg.sender);\r\n    }\r\n\r\n    function getTransaction(uint256 _txIndex)\r\n        public\r\n        view\r\n        returns (\r\n            address to,\r\n            uint64 value,\r\n            uint8 numConfirmation,\r\n            bytes memory data,\r\n            bool excuted\r\n        )\r\n    {\r\n        Transaction memory transaction = transactions[_txIndex];\r\n        return (\r\n            transaction.to,\r\n            transaction.value,\r\n            transaction.numConfirmations,\r\n            transaction.data,\r\n            transaction.executed\r\n        );\r\n    }\r\n\r\n    function submitOwnerForm(\r\n        bytes memory _desc,\r\n        uint8 _suggNumConfirmRequired,\r\n        address _ownerAddress,\r\n        bool _isSubmitRemovedOwnerForm\r\n    )\r\n        public\r\n        onlyOwner(msg.sender)\r\n        isValidNumConfirmaionRequired(\r\n            _suggNumConfirmRequired,\r\n            _isSubmitRemovedOwnerForm\r\n        )\r\n    {\r\n        require(_ownerAddress != address(0), \"address not valid\");\r\n        uint256 id = ownerForms.length;\r\n        uint64 expireTime = uint64((block.timestamp) + 1 weeks);\r\n        ownerForms.push(\r\n            ownerForm({\r\n                desc: _desc,\r\n                numConfirmationsRequired: _suggNumConfirmRequired,\r\n                numConfirmation: 0,\r\n                expireTime: expireTime,\r\n                ownerAddress: _ownerAddress,\r\n                executed: false,\r\n                isRemoveOwner: _isSubmitRemovedOwnerForm\r\n            })\r\n        );\r\n        emit SubmitOwnerForm(\r\n            _ownerAddress,\r\n            id,\r\n            _desc,\r\n            _suggNumConfirmRequired,\r\n            expireTime,\r\n            _isSubmitRemovedOwnerForm\r\n        );\r\n    }\r\n\r\n    function confirmOwnerForm(uint256 _formIndex)\r\n        public\r\n        onlyOwner(msg.sender)\r\n        isExistForm(_formIndex)\r\n        isNotExcuteOwnerForm(_formIndex)\r\n        isNotExpireForm(_formIndex)\r\n        isNotConfirmOwnerForm(_formIndex)\r\n    {\r\n        ownerForm storage form = ownerForms[_formIndex];\r\n        form.numConfirmation++;\r\n        isConfirmOwnerForm[_formIndex][msg.sender] = true;\r\n        emit ConfirmOwnerForm(_formIndex, msg.sender);\r\n    }\r\n\r\n    function revokeOwnerForm(uint256 _formIndex)\r\n        public\r\n        onlyOwner(msg.sender)\r\n        isExistForm(_formIndex)\r\n        isNotExpireForm(_formIndex)\r\n        isNotExcuteOwnerForm(_formIndex)\r\n    {\r\n        require(\r\n            isConfirmOwnerForm[_formIndex][msg.sender],\r\n            \"is not confirm form\"\r\n        );\r\n        ownerForm storage form = ownerForms[_formIndex];\r\n        form.numConfirmation--;\r\n        isConfirmOwnerForm[_formIndex][msg.sender] = false;\r\n        emit RevokeOwnerFormConfirmation(_formIndex, msg.sender);\r\n    }\r\n\r\n    function excuteOwnerForm(uint256 _formIndex)\r\n        public\r\n        onlyOwner(msg.sender)\r\n        isExistForm(_formIndex)\r\n        isNotExpireForm(_formIndex)\r\n        isNotExcuteOwnerForm(_formIndex)\r\n    {\r\n        ownerForm storage form = ownerForms[_formIndex];\r\n        require(\r\n            form.numConfirmation >= numConfirmationsRequired,\r\n            \"not confirm enough\"\r\n        );\r\n        form.executed = true;\r\n        numConfirmationsRequired = form.numConfirmationsRequired;\r\n        if (form.isRemoveOwner) {\r\n            _deleteOwner(form.ownerAddress);\r\n        } else {\r\n            owners.push(form.ownerAddress);\r\n        }\r\n        emit ExcuteOwnerForm(_formIndex, msg.sender, form.ownerAddress);\r\n    }\r\n\r\n    function _deleteOwner(address _owner) private {\r\n        for (uint256 i = 0; i < owners.length; i++) {\r\n            if (owners[i] == _owner) {\r\n                delete owners[i];\r\n                return;\r\n            }\r\n        }\r\n    }\r\n\r\n    function getOwnerForm(uint256 _formIndex)\r\n        public\r\n        view\r\n        isExistForm(_formIndex)\r\n        returns (\r\n            bytes memory _desc,\r\n            uint8 _numConfirmation,\r\n            uint8 _numConfirmationsRequired,\r\n            uint64 _expireTime,\r\n            bool _isRemoveOwne,\r\n            bool _executed,\r\n            address _ownerAddress\r\n        )\r\n    {\r\n        ownerForm memory form = ownerForms[_formIndex];\r\n        return (\r\n            form.desc,\r\n            form.numConfirmation,\r\n            form.numConfirmationsRequired,\r\n            form.expireTime,\r\n            form.isRemoveOwner,\r\n            form.executed,\r\n            form.ownerAddress\r\n        );\r\n    }\r\n\r\n    function getOwnersCount() public view returns (uint256) {\r\n        return owners.length;\r\n    }\r\n}\r\n",
  "sourcePath": "F:\\Multi Signature wallet\\contracts\\MultiSigWallet .sol",
  "compiler": {
    "name": "solc",
    "version": "0.8.17+commit.8df45f5f.Emscripten.clang"
  },
  "schemaVersion": "3.4.10",
  "updatedAt": "2022-12-25T12:10:30.042Z",
  "devdoc": {
    "kind": "dev",
    "methods": {},
    "version": 1
  },
  "userdoc": {
    "kind": "user",
    "methods": {},
    "version": 1
  }
}