{
  "contractName": "MultiSigWallet",
  "abi": [
    {
      "inputs": [
        {
          "internalType": "address[]",
          "name": "_owners",
          "type": "address[]"
        },
        {
          "internalType": "uint8",
          "name": "_numConfirmationRequired",
          "type": "uint8"
        }
      ],
      "stateMutability": "nonpayable",
      "type": "constructor"
    },
    {
      "anonymous": false,
      "inputs": [
        {
          "indexed": false,
          "internalType": "uint256",
          "name": "txId",
          "type": "uint256"
        },
        {
          "indexed": false,
          "internalType": "address",
          "name": "owner",
          "type": "address"
        }
      ],
      "name": "ConfirmOwnerForm",
      "type": "event"
    },
    {
      "anonymous": false,
      "inputs": [
        {
          "indexed": false,
          "internalType": "uint256",
          "name": "txId",
          "type": "uint256"
        },
        {
          "indexed": false,
          "internalType": "address",
          "name": "owner",
          "type": "address"
        }
      ],
      "name": "ConfirmTransaction",
      "type": "event"
    },
    {
      "anonymous": false,
      "inputs": [
        {
          "indexed": false,
          "internalType": "address",
          "name": "sender",
          "type": "address"
        },
        {
          "indexed": false,
          "internalType": "uint256",
          "name": "amount",
          "type": "uint256"
        },
        {
          "indexed": false,
          "internalType": "uint256",
          "name": "balance",
          "type": "uint256"
        }
      ],
      "name": "Deposit",
      "type": "event"
    },
    {
      "anonymous": false,
      "inputs": [
        {
          "indexed": false,
          "internalType": "uint256",
          "name": "formId",
          "type": "uint256"
        },
        {
          "indexed": false,
          "internalType": "address",
          "name": "owner",
          "type": "address"
        },
        {
          "indexed": false,
          "internalType": "address",
          "name": "suggesOwner",
          "type": "address"
        }
      ],
      "name": "ExcuteOwnerForm",
      "type": "event"
    },
    {
      "anonymous": false,
      "inputs": [
        {
          "indexed": false,
          "internalType": "uint256",
          "name": "txId",
          "type": "uint256"
        },
        {
          "indexed": false,
          "internalType": "address",
          "name": "owner",
          "type": "address"
        }
      ],
      "name": "ExcuteTransaction",
      "type": "event"
    },
    {
      "anonymous": false,
      "inputs": [
        {
          "indexed": false,
          "internalType": "uint256",
          "name": "txId",
          "type": "uint256"
        },
        {
          "indexed": false,
          "internalType": "address",
          "name": "owner",
          "type": "address"
        }
      ],
      "name": "RevokeConfirmation",
      "type": "event"
    },
    {
      "anonymous": false,
      "inputs": [
        {
          "indexed": false,
          "internalType": "uint256",
          "name": "txId",
          "type": "uint256"
        },
        {
          "indexed": false,
          "internalType": "address",
          "name": "owner",
          "type": "address"
        }
      ],
      "name": "RevokeOwnerFormConfirmation",
      "type": "event"
    },
    {
      "anonymous": false,
      "inputs": [
        {
          "indexed": false,
          "internalType": "address",
          "name": "suggesOwner",
          "type": "address"
        },
        {
          "indexed": false,
          "internalType": "uint256",
          "name": "txId",
          "type": "uint256"
        },
        {
          "indexed": false,
          "internalType": "bytes",
          "name": "desc",
          "type": "bytes"
        },
        {
          "indexed": false,
          "internalType": "uint8",
          "name": "numConfirmationsRequired",
          "type": "uint8"
        },
        {
          "indexed": false,
          "internalType": "uint256",
          "name": "expireTime",
          "type": "uint256"
        },
        {
          "indexed": false,
          "internalType": "bool",
          "name": "isRemovedOwner",
          "type": "bool"
        }
      ],
      "name": "SubmitOwnerForm",
      "type": "event"
    },
    {
      "anonymous": false,
      "inputs": [
        {
          "indexed": false,
          "internalType": "address",
          "name": "owner",
          "type": "address"
        },
        {
          "indexed": false,
          "internalType": "address",
          "name": "to",
          "type": "address"
        },
        {
          "indexed": false,
          "internalType": "uint256",
          "name": "txId",
          "type": "uint256"
        },
        {
          "indexed": false,
          "internalType": "uint256",
          "name": "value",
          "type": "uint256"
        },
        {
          "indexed": false,
          "internalType": "bytes",
          "name": "data",
          "type": "bytes"
        }
      ],
      "name": "SubmitTransaction",
      "type": "event"
    },
    {
      "inputs": [],
      "name": "numConfirmationsRequired",
      "outputs": [
        {
          "internalType": "uint8",
          "name": "",
          "type": "uint8"
        }
      ],
      "stateMutability": "view",
      "type": "function"
    },
    {
      "inputs": [
        {
          "internalType": "uint256",
          "name": "",
          "type": "uint256"
        }
      ],
      "name": "owners",
      "outputs": [
        {
          "internalType": "address",
          "name": "",
          "type": "address"
        }
      ],
      "stateMutability": "view",
      "type": "function"
    },
    {
      "inputs": [
        {
          "internalType": "address",
          "name": "_to",
          "type": "address"
        },
        {
          "internalType": "uint64",
          "name": "_value",
          "type": "uint64"
        },
        {
          "internalType": "bytes",
          "name": "_data",
          "type": "bytes"
        }
      ],
      "name": "submitTransaction",
      "outputs": [],
      "stateMutability": "nonpayable",
      "type": "function"
    },
    {
      "inputs": [
        {
          "internalType": "uint256",
          "name": "_txId",
          "type": "uint256"
        }
      ],
      "name": "confirmTransaction",
      "outputs": [],
      "stateMutability": "nonpayable",
      "type": "function"
    },
    {
      "inputs": [
        {
          "internalType": "uint256",
          "name": "_txId",
          "type": "uint256"
        }
      ],
      "name": "revokeTransaction",
      "outputs": [],
      "stateMutability": "nonpayable",
      "type": "function"
    },
    {
      "inputs": [
        {
          "internalType": "uint256",
          "name": "_txId",
          "type": "uint256"
        }
      ],
      "name": "getTransaction",
      "outputs": [
        {
          "internalType": "address",
          "name": "to",
          "type": "address"
        },
        {
          "internalType": "uint64",
          "name": "value",
          "type": "uint64"
        },
        {
          "internalType": "uint8",
          "name": "numConfirmation",
          "type": "uint8"
        },
        {
          "internalType": "bytes",
          "name": "data",
          "type": "bytes"
        },
        {
          "internalType": "bool",
          "name": "excuted",
          "type": "bool"
        }
      ],
      "stateMutability": "view",
      "type": "function"
    },
    {
      "inputs": [
        {
          "internalType": "bytes",
          "name": "_desc",
          "type": "bytes"
        },
        {
          "internalType": "uint8",
          "name": "_suggNumConfirmRequired",
          "type": "uint8"
        },
        {
          "internalType": "address",
          "name": "_suggesOwnerAddress",
          "type": "address"
        }
      ],
      "name": "submitOwnerForm",
      "outputs": [],
      "stateMutability": "nonpayable",
      "type": "function"
    },
    {
      "inputs": [
        {
          "internalType": "bytes",
          "name": "_desc",
          "type": "bytes"
        },
        {
          "internalType": "uint8",
          "name": "_suggNumConfirmRequired",
          "type": "uint8"
        },
        {
          "internalType": "address",
          "name": "_removedOwnerAddress",
          "type": "address"
        }
      ],
      "name": "submitRemovedOwerForm",
      "outputs": [],
      "stateMutability": "nonpayable",
      "type": "function"
    },
    {
      "inputs": [
        {
          "internalType": "uint256",
          "name": "_formId",
          "type": "uint256"
        }
      ],
      "name": "confirmOwnerForm",
      "outputs": [],
      "stateMutability": "nonpayable",
      "type": "function"
    },
    {
      "inputs": [
        {
          "internalType": "uint256",
          "name": "_formId",
          "type": "uint256"
        }
      ],
      "name": "revokeOwnerForm",
      "outputs": [],
      "stateMutability": "nonpayable",
      "type": "function"
    }
  ],
  "bytecode": "0x60806040523480156200001157600080fd5b50604051620039ab380380620039ab83398181016040528101906200003791906200052b565b60018251116200007e576040517f08c379a00000000000000000000000000000000000000000000000000000000081526004016200007590620005f2565b60405180910390fd5b81518160ff161115801562000096575060008160ff16115b620000d8576040517f08c379a0000000000000000000000000000000000000000000000000000000008152600401620000cf906200068a565b60405180910390fd5b60005b8251811015620002db576000838281518110620000fd57620000fc620006ac565b5b60200260200101519050600073ffffffffffffffffffffffffffffffffffffffff168173ffffffffffffffffffffffffffffffffffffffff160362000179576040517f08c379a000000000000000000000000000000000000000000000000000000000815260040162000170906200072b565b60405180910390fd5b600260008273ffffffffffffffffffffffffffffffffffffffff1673ffffffffffffffffffffffffffffffffffffffff16815260200190815260200160002060009054906101000a900460ff161562000209576040517f08c379a000000000000000000000000000000000000000000000000000000000815260040162000200906200079d565b60405180910390fd5b6001600260008373ffffffffffffffffffffffffffffffffffffffff1673ffffffffffffffffffffffffffffffffffffffff16815260200190815260200160002060006101000a81548160ff0219169083151502179055506000819080600181540180825580915050600190039060005260206000200160009091909190916101000a81548173ffffffffffffffffffffffffffffffffffffffff021916908373ffffffffffffffffffffffffffffffffffffffff160217905550508080620002d290620007f8565b915050620000db565b5080600160006101000a81548160ff021916908360ff160217905550505062000845565b6000604051905090565b600080fd5b600080fd5b600080fd5b6000601f19601f8301169050919050565b7f4e487b7100000000000000000000000000000000000000000000000000000000600052604160045260246000fd5b620003638262000318565b810181811067ffffffffffffffff8211171562000385576200038462000329565b5b80604052505050565b60006200039a620002ff565b9050620003a8828262000358565b919050565b600067ffffffffffffffff821115620003cb57620003ca62000329565b5b602082029050602081019050919050565b600080fd5b600073ffffffffffffffffffffffffffffffffffffffff82169050919050565b60006200040e82620003e1565b9050919050565b620004208162000401565b81146200042c57600080fd5b50565b600081519050620004408162000415565b92915050565b60006200045d6200045784620003ad565b6200038e565b90508083825260208201905060208402830185811115620004835762000482620003dc565b5b835b81811015620004b057806200049b88826200042f565b84526020840193505060208101905062000485565b5050509392505050565b600082601f830112620004d257620004d162000313565b5b8151620004e484826020860162000446565b91505092915050565b600060ff82169050919050565b6200050581620004ed565b81146200051157600080fd5b50565b6000815190506200052581620004fa565b92915050565b6000806040838503121562000545576200054462000309565b5b600083015167ffffffffffffffff8111156200056657620005656200030e565b5b6200057485828601620004ba565b9250506020620005878582860162000514565b9150509250929050565b600082825260208201905092915050565b7f6f776e6572732072657175697265640000000000000000000000000000000000600082015250565b6000620005da600f8362000591565b9150620005e782620005a2565b602082019050919050565b600060208201905081810360008301526200060d81620005cb565b9050919050565b7f696e76616c6964206e756d626572206f6620726571756972656420636f6e666960008201527f726d6174696f6e73000000000000000000000000000000000000000000000000602082015250565b60006200067260288362000591565b91506200067f8262000614565b604082019050919050565b60006020820190508181036000830152620006a58162000663565b9050919050565b7f4e487b7100000000000000000000000000000000000000000000000000000000600052603260045260246000fd5b7f696e76616c6964206f776e657200000000000000000000000000000000000000600082015250565b600062000713600d8362000591565b91506200072082620006db565b602082019050919050565b60006020820190508181036000830152620007468162000704565b9050919050565b7f6f776e6572206e6f7420756e6971756500000000000000000000000000000000600082015250565b60006200078560108362000591565b915062000792826200074d565b602082019050919050565b60006020820190508181036000830152620007b88162000776565b9050919050565b7f4e487b7100000000000000000000000000000000000000000000000000000000600052601160045260246000fd5b6000819050919050565b60006200080582620007ee565b91507fffffffffffffffffffffffffffffffffffffffffffffffffffffffffffffffff82036200083a5762000839620007bf565b5b600182019050919050565b61315680620008556000396000f3fe608060405234801561001057600080fd5b506004361061009e5760003560e01c8063735631ad11610066578063735631ad1461015b578063b7aa030f14610177578063ba8aec2d14610193578063c01a8c84146101af578063d0549b85146101cb5761009e565b8063025e7c27146100a35780631c585152146100d357806333ea3dc8146100ef578063492a7dca146101235780635698e3421461013f575b600080fd5b6100bd60048036038101906100b89190612074565b6101e9565b6040516100ca91906120e2565b60405180910390f35b6100ed60048036038101906100e891906122af565b610228565b005b61010960048036038101906101049190612074565b610417565b60405161011a9594939291906123e3565b60405180910390f35b61013d60048036038101906101389190612469565b6105cf565b005b61015960048036038101906101549190612074565b610a11565b005b61017560048036038101906101709190612074565b610d71565b005b610191600480360381019061018c9190612074565b61102a565b005b6101ad60048036038101906101a89190612469565b611350565b005b6101c960048036038101906101c49190612074565b6117a9565b005b6101d3611a9c565b6040516101e091906124d8565b60405180910390f35b600081815481106101f957600080fd5b906000526020600020016000915054906101000a900473ffffffffffffffffffffffffffffffffffffffff1681565b33600260008273ffffffffffffffffffffffffffffffffffffffff1673ffffffffffffffffffffffffffffffffffffffff16815260200190815260200160002060009054906101000a900460ff1661027f57600080fd5b6000600580549050905060056040518060a001604052808773ffffffffffffffffffffffffffffffffffffffff1681526020018667ffffffffffffffff168152602001600060ff16815260200185815260200160001515815250908060018154018082558091505060019003906000526020600020906003020160009091909190915060008201518160000160006101000a81548173ffffffffffffffffffffffffffffffffffffffff021916908373ffffffffffffffffffffffffffffffffffffffff16021790555060208201518160000160146101000a81548167ffffffffffffffff021916908367ffffffffffffffff160217905550604082015181600001601c6101000a81548160ff021916908360ff16021790555060608201518160010190816103ae91906126ff565b5060808201518160020160006101000a81548160ff02191690831515021790555050507f1d7d2ab830f9cb1e20ab181b2efc46ba87bdb7f0dee22f87e780267cd6605ea13386838787604051610408959493929190612811565b60405180910390a15050505050565b60008060006060600080600587815481106104355761043461286b565b5b90600052602060002090600302016040518060a00160405290816000820160009054906101000a900473ffffffffffffffffffffffffffffffffffffffff1673ffffffffffffffffffffffffffffffffffffffff1673ffffffffffffffffffffffffffffffffffffffff1681526020016000820160149054906101000a900467ffffffffffffffff1667ffffffffffffffff1667ffffffffffffffff16815260200160008201601c9054906101000a900460ff1660ff1660ff16815260200160018201805461050390612522565b80601f016020809104026020016040519081016040528092919081815260200182805461052f90612522565b801561057c5780601f106105515761010080835404028352916020019161057c565b820191906000526020600020905b81548152906001019060200180831161055f57829003601f168201915b505050505081526020016002820160009054906101000a900460ff161515151581525050905080600001518160200151826040015183606001518460800151955095509550955095505091939590929450565b33600260008273ffffffffffffffffffffffffffffffffffffffff1673ffffffffffffffffffffffffffffffffffffffff16815260200190815260200160002060009054906101000a900460ff1661062657600080fd5b81600260008273ffffffffffffffffffffffffffffffffffffffff1673ffffffffffffffffffffffffffffffffffffffff16815260200190815260200160002060009054906101000a900460ff1661067d57600080fd5b83600160008082156106a257600160008054905061069b91906128c9565b91506106b7565b60016000805490506106b491906128fe565b91505b60028260ff1610156106fe576040517f08c379a00000000000000000000000000000000000000000000000000000000081526004016106f590612990565b60405180910390fd5b8360ff168260ff1610158015610717575060018460ff16115b610756576040517f08c379a000000000000000000000000000000000000000000000000000000000815260040161074d906129fc565b60405180910390fd5b60006002836107659190612a4b565b905060008160ff16036107925760016002846107819190612a7c565b61078b91906128fe565b91506107ae565b60026001846107a191906128fe565b6107ab9190612a7c565b91505b8160ff168560ff16101580156107ca57508260ff168560ff1611155b610809576040517f08c379a0000000000000000000000000000000000000000000000000000000008152600401610800906129fc565b60405180910390fd5b60006006805490509050600062093a80426108249190612aad565b905060066040518060e001604052808e8152602001600060ff1681526020018d60ff1681526020018367ffffffffffffffff1681526020016001151581526020016000151581526020018c73ffffffffffffffffffffffffffffffffffffffff16815250908060018154018082558091505060019003906000526020600020906002020160009091909190915060008201518160000190816108c691906126ff565b5060208201518160010160006101000a81548160ff021916908360ff16021790555060408201518160010160016101000a81548160ff021916908360ff16021790555060608201518160010160026101000a81548167ffffffffffffffff021916908367ffffffffffffffff160217905550608082015181600101600a6101000a81548160ff02191690831515021790555060a082015181600101600b6101000a81548160ff02191690831515021790555060c082015181600101600c6101000a81548173ffffffffffffffffffffffffffffffffffffffff021916908373ffffffffffffffffffffffffffffffffffffffff16021790555050507ffbf4f7e069d18b0a9c8e98d53b2cd3c8b9e0fa435604518c96eb783adfec7bb48a838e8e8560016040516109fb96959493929190612ae1565b60405180910390a1505050505050505050505050565b33600260008273ffffffffffffffffffffffffffffffffffffffff1673ffffffffffffffffffffffffffffffffffffffff16815260200190815260200160002060009054906101000a900460ff16610a6857600080fd5b81806006805490501115610ab1576040517f08c379a0000000000000000000000000000000000000000000000000000000008152600401610aa890612b95565b60405180910390fd5b82600062093a8042610ac39190612aad565b905060068281548110610ad957610ad861286b565b5b906000526020600020906002020160010160029054906101000a900467ffffffffffffffff1667ffffffffffffffff168167ffffffffffffffff16108015610b51575060068281548110610b3057610b2f61286b565b5b9060005260206000209060020201600101600b9054906101000a900460ff16155b610b90576040517f08c379a0000000000000000000000000000000000000000000000000000000008152600401610b8790612c01565b60405180910390fd5b846004600082815260200190815260200160002060003373ffffffffffffffffffffffffffffffffffffffff1673ffffffffffffffffffffffffffffffffffffffff16815260200190815260200160002060009054906101000a900460ff1615610c2f576040517f08c379a0000000000000000000000000000000000000000000000000000000008152600401610c2690612c6d565b60405180910390fd5b600060068781548110610c4557610c4461286b565b5b9060005260206000209060020201905080600101600081819054906101000a900460ff1680929190610c7690612c8d565b91906101000a81548160ff021916908360ff1602179055505060016004600089815260200190815260200160002060003373ffffffffffffffffffffffffffffffffffffffff1673ffffffffffffffffffffffffffffffffffffffff16815260200190815260200160002060006101000a81548160ff0219169083151502179055507f5a465aceb84842f24df3f295fdbcc05c3d0456c97768260476f48efd02f889a28733604051610d29929190612cb6565b60405180910390a1600160009054906101000a900460ff1660ff168160010160009054906101000a900460ff1660ff1610610d6857610d6787611aaf565b5b50505050505050565b33600260008273ffffffffffffffffffffffffffffffffffffffff1673ffffffffffffffffffffffffffffffffffffffff16815260200190815260200160002060009054906101000a900460ff16610dc857600080fd5b81806005805490501115610e11576040517f08c379a0000000000000000000000000000000000000000000000000000000008152600401610e0890612d2b565b60405180910390fd5b8260058181548110610e2657610e2561286b565b5b906000526020600020906003020160020160009054906101000a900460ff1615610e85576040517f08c379a0000000000000000000000000000000000000000000000000000000008152600401610e7c90612d97565b60405180910390fd5b6003600085815260200190815260200160002060003373ffffffffffffffffffffffffffffffffffffffff1673ffffffffffffffffffffffffffffffffffffffff16815260200190815260200160002060009054906101000a900460ff16610f22576040517f08c379a0000000000000000000000000000000000000000000000000000000008152600401610f1990612e03565b60405180910390fd5b600060058581548110610f3857610f3761286b565b5b90600052602060002090600302019050600181600001601c8282829054906101000a900460ff16610f6991906128c9565b92506101000a81548160ff021916908360ff16021790555060006003600087815260200190815260200160002060003373ffffffffffffffffffffffffffffffffffffffff1673ffffffffffffffffffffffffffffffffffffffff16815260200190815260200160002060006101000a81548160ff0219169083151502179055507f7f8ce8e4f5a5b480ff78c18404639350996fd63efc83ace55b1d6a3e12158e24853360405161101b929190612cb6565b60405180910390a15050505050565b33600260008273ffffffffffffffffffffffffffffffffffffffff1673ffffffffffffffffffffffffffffffffffffffff16815260200190815260200160002060009054906101000a900460ff1661108157600080fd5b818060068054905011156110ca576040517f08c379a00000000000000000000000000000000000000000000000000000000081526004016110c190612b95565b60405180910390fd5b82600062093a80426110dc9190612aad565b9050600682815481106110f2576110f161286b565b5b906000526020600020906002020160010160029054906101000a900467ffffffffffffffff1667ffffffffffffffff168167ffffffffffffffff1610801561116a5750600682815481106111495761114861286b565b5b9060005260206000209060020201600101600b9054906101000a900460ff16155b6111a9576040517f08c379a00000000000000000000000000000000000000000000000000000000081526004016111a090612c01565b60405180910390fd5b6004600086815260200190815260200160002060003373ffffffffffffffffffffffffffffffffffffffff1673ffffffffffffffffffffffffffffffffffffffff16815260200190815260200160002060009054906101000a900460ff16611246576040517f08c379a000000000000000000000000000000000000000000000000000000000815260040161123d90612e6f565b60405180910390fd5b60006006868154811061125c5761125b61286b565b5b9060005260206000209060020201905080600101600081819054906101000a900460ff168092919061128d90612e8f565b91906101000a81548160ff021916908360ff1602179055505060006004600088815260200190815260200160002060003373ffffffffffffffffffffffffffffffffffffffff1673ffffffffffffffffffffffffffffffffffffffff16815260200190815260200160002060006101000a81548160ff0219169083151502179055507f1f5bf6fa009bc22d40974f5ce780ffe12780bd693620743c528574a456038f438633604051611340929190612cb6565b60405180910390a1505050505050565b33600260008273ffffffffffffffffffffffffffffffffffffffff1673ffffffffffffffffffffffffffffffffffffffff16815260200190815260200160002060009054906101000a900460ff166113a757600080fd5b82600080600082156113cc5760016000805490506113c591906128c9565b91506113e1565b60016000805490506113de91906128fe565b91505b60028260ff161015611428576040517f08c379a000000000000000000000000000000000000000000000000000000000815260040161141f90612990565b60405180910390fd5b8360ff168260ff1610158015611441575060018460ff16115b611480576040517f08c379a0000000000000000000000000000000000000000000000000000000008152600401611477906129fc565b60405180910390fd5b600060028361148f9190612a4b565b905060008160ff16036114bc5760016002846114ab9190612a7c565b6114b591906128fe565b91506114d8565b60026001846114cb91906128fe565b6114d59190612a7c565b91505b8160ff168560ff16101580156114f457508260ff168560ff1611155b611533576040517f08c379a000000000000000000000000000000000000000000000000000000000815260040161152a906129fc565b60405180910390fd5b600073ffffffffffffffffffffffffffffffffffffffff168773ffffffffffffffffffffffffffffffffffffffff16036115a2576040517f08c379a000000000000000000000000000000000000000000000000000000000815260040161159990612f04565b60405180910390fd5b60006006805490509050600062093a80426115bd9190612aad565b905060066040518060e001604052808d8152602001600060ff1681526020018c60ff1681526020018367ffffffffffffffff1681526020016000151581526020016000151581526020018b73ffffffffffffffffffffffffffffffffffffffff168152509080600181540180825580915050600190039060005260206000209060020201600090919091909150600082015181600001908161165f91906126ff565b5060208201518160010160006101000a81548160ff021916908360ff16021790555060408201518160010160016101000a81548160ff021916908360ff16021790555060608201518160010160026101000a81548167ffffffffffffffff021916908367ffffffffffffffff160217905550608082015181600101600a6101000a81548160ff02191690831515021790555060a082015181600101600b6101000a81548160ff02191690831515021790555060c082015181600101600c6101000a81548173ffffffffffffffffffffffffffffffffffffffff021916908373ffffffffffffffffffffffffffffffffffffffff16021790555050507ffbf4f7e069d18b0a9c8e98d53b2cd3c8b9e0fa435604518c96eb783adfec7bb489838d8d85600060405161179496959493929190612ae1565b60405180910390a15050505050505050505050565b33600260008273ffffffffffffffffffffffffffffffffffffffff1673ffffffffffffffffffffffffffffffffffffffff16815260200190815260200160002060009054906101000a900460ff1661180057600080fd5b81806005805490501115611849576040517f08c379a000000000000000000000000000000000000000000000000000000000815260040161184090612d2b565b60405180910390fd5b826005818154811061185e5761185d61286b565b5b906000526020600020906003020160020160009054906101000a900460ff16156118bd576040517f08c379a00000000000000000000000000000000000000000000000000000000081526004016118b490612d97565b60405180910390fd5b836003600082815260200190815260200160002060003373ffffffffffffffffffffffffffffffffffffffff1673ffffffffffffffffffffffffffffffffffffffff16815260200190815260200160002060009054906101000a900460ff161561195c576040517f08c379a000000000000000000000000000000000000000000000000000000000815260040161195390612c6d565b60405180910390fd5b6000600586815481106119725761197161286b565b5b90600052602060002090600302019050600181600001601c8282829054906101000a900460ff166119a391906128fe565b92506101000a81548160ff021916908360ff16021790555060016003600088815260200190815260200160002060003373ffffffffffffffffffffffffffffffffffffffff1673ffffffffffffffffffffffffffffffffffffffff16815260200190815260200160002060006101000a81548160ff0219169083151502179055507fcb0f87c749501e9cd0f274dc3a2c62b91b6a4f2909001c6c13663072b739d3d68633604051611a55929190612cb6565b60405180910390a1600160009054906101000a900460ff1660ff1681600001601c9054906101000a900460ff1660ff1610611a9457611a9386611c52565b5b505050505050565b600160009054906101000a900460ff1681565b600060068281548110611ac557611ac461286b565b5b90600052602060002090600202019050600181600101600b6101000a81548160ff0219169083151502179055508060010160019054906101000a900460ff16600160006101000a81548160ff021916908360ff16021790555080600101600a9054906101000a900460ff1615611b6757611b6281600101600c9054906101000a900473ffffffffffffffffffffffffffffffffffffffff16611f4a565b611bef565b600081600101600c9054906101000a900473ffffffffffffffffffffffffffffffffffffffff169080600181540180825580915050600190039060005260206000200160009091909190916101000a81548173ffffffffffffffffffffffffffffffffffffffff021916908373ffffffffffffffffffffffffffffffffffffffff1602179055505b7fa7041fc690ae08a3fa7feae9c1e05ef275c4a05182b2aa978b862595bae4e5b5823383600101600c9054906101000a900473ffffffffffffffffffffffffffffffffffffffff16604051611c4693929190612f24565b60405180910390a15050565b33600260008273ffffffffffffffffffffffffffffffffffffffff1673ffffffffffffffffffffffffffffffffffffffff16815260200190815260200160002060009054906101000a900460ff16611ca957600080fd5b81806005805490501115611cf2576040517f08c379a0000000000000000000000000000000000000000000000000000000008152600401611ce990612d2b565b60405180910390fd5b8260058181548110611d0757611d0661286b565b5b906000526020600020906003020160020160009054906101000a900460ff1615611d66576040517f08c379a0000000000000000000000000000000000000000000000000000000008152600401611d5d90612d97565b60405180910390fd5b600060058581548110611d7c57611d7b61286b565b5b90600052602060002090600302019050600160009054906101000a900460ff1660ff1681600001601c9054906101000a900460ff1660ff161015611df5576040517f08c379a0000000000000000000000000000000000000000000000000000000008152600401611dec90612fa7565b60405180910390fd5b60018160020160006101000a81548160ff02191690831515021790555060008160000160009054906101000a900473ffffffffffffffffffffffffffffffffffffffff1673ffffffffffffffffffffffffffffffffffffffff168260000160149054906101000a900467ffffffffffffffff1667ffffffffffffffff1683600101604051611e839190613055565b60006040518083038185875af1925050503d8060008114611ec0576040519150601f19603f3d011682016040523d82523d6000602084013e611ec5565b606091505b5050905080611f09576040517f08c379a0000000000000000000000000000000000000000000000000000000008152600401611f00906130b8565b60405180910390fd5b7f1ba30ad0aef51debe91398f85b9fa35329744ffbbac11ab87f12aa3178d1c6e08633604051611f3a929190612cb6565b60405180910390a1505050505050565b60005b600080549050811015612025578173ffffffffffffffffffffffffffffffffffffffff1660008281548110611f8557611f8461286b565b5b9060005260206000200160009054906101000a900473ffffffffffffffffffffffffffffffffffffffff1673ffffffffffffffffffffffffffffffffffffffff16036120125760008181548110611fdf57611fde61286b565b5b9060005260206000200160006101000a81549073ffffffffffffffffffffffffffffffffffffffff021916905550612027565b808061201d906130d8565b915050611f4d565b505b50565b6000604051905090565b600080fd5b600080fd5b6000819050919050565b6120518161203e565b811461205c57600080fd5b50565b60008135905061206e81612048565b92915050565b60006020828403121561208a57612089612034565b5b60006120988482850161205f565b91505092915050565b600073ffffffffffffffffffffffffffffffffffffffff82169050919050565b60006120cc826120a1565b9050919050565b6120dc816120c1565b82525050565b60006020820190506120f760008301846120d3565b92915050565b612106816120c1565b811461211157600080fd5b50565b600081359050612123816120fd565b92915050565b600067ffffffffffffffff82169050919050565b61214681612129565b811461215157600080fd5b50565b6000813590506121638161213d565b92915050565b600080fd5b600080fd5b6000601f19601f8301169050919050565b7f4e487b7100000000000000000000000000000000000000000000000000000000600052604160045260246000fd5b6121bc82612173565b810181811067ffffffffffffffff821117156121db576121da612184565b5b80604052505050565b60006121ee61202a565b90506121fa82826121b3565b919050565b600067ffffffffffffffff82111561221a57612219612184565b5b61222382612173565b9050602081019050919050565b82818337600083830152505050565b600061225261224d846121ff565b6121e4565b90508281526020810184848401111561226e5761226d61216e565b5b612279848285612230565b509392505050565b600082601f83011261229657612295612169565b5b81356122a684826020860161223f565b91505092915050565b6000806000606084860312156122c8576122c7612034565b5b60006122d686828701612114565b93505060206122e786828701612154565b925050604084013567ffffffffffffffff81111561230857612307612039565b5b61231486828701612281565b9150509250925092565b61232781612129565b82525050565b600060ff82169050919050565b6123438161232d565b82525050565b600081519050919050565b600082825260208201905092915050565b60005b83811015612383578082015181840152602081019050612368565b60008484015250505050565b600061239a82612349565b6123a48185612354565b93506123b4818560208601612365565b6123bd81612173565b840191505092915050565b60008115159050919050565b6123dd816123c8565b82525050565b600060a0820190506123f860008301886120d3565b612405602083018761231e565b612412604083018661233a565b8181036060830152612424818561238f565b905061243360808301846123d4565b9695505050505050565b6124468161232d565b811461245157600080fd5b50565b6000813590506124638161243d565b92915050565b60008060006060848603121561248257612481612034565b5b600084013567ffffffffffffffff8111156124a05761249f612039565b5b6124ac86828701612281565b93505060206124bd86828701612454565b92505060406124ce86828701612114565b9150509250925092565b60006020820190506124ed600083018461233a565b92915050565b7f4e487b7100000000000000000000000000000000000000000000000000000000600052602260045260246000fd5b6000600282049050600182168061253a57607f821691505b60208210810361254d5761254c6124f3565b5b50919050565b60008190508160005260206000209050919050565b60006020601f8301049050919050565b600082821b905092915050565b6000600883026125b57fffffffffffffffffffffffffffffffffffffffffffffffffffffffffffffffff82612578565b6125bf8683612578565b95508019841693508086168417925050509392505050565b6000819050919050565b60006125fc6125f76125f28461203e565b6125d7565b61203e565b9050919050565b6000819050919050565b612616836125e1565b61262a61262282612603565b848454612585565b825550505050565b600090565b61263f612632565b61264a81848461260d565b505050565b5b8181101561266e57612663600082612637565b600181019050612650565b5050565b601f8211156126b35761268481612553565b61268d84612568565b8101602085101561269c578190505b6126b06126a885612568565b83018261264f565b50505b505050565b600082821c905092915050565b60006126d6600019846008026126b8565b1980831691505092915050565b60006126ef83836126c5565b9150826002028217905092915050565b61270882612349565b67ffffffffffffffff81111561272157612720612184565b5b61272b8254612522565b612736828285612672565b600060209050601f8311600181146127695760008415612757578287015190505b61276185826126e3565b8655506127c9565b601f19841661277786612553565b60005b8281101561279f5784890151825560018201915060208501945060208101905061277a565b868310156127bc57848901516127b8601f8916826126c5565b8355505b6001600288020188555050505b505050505050565b6127da8161203e565b82525050565b60006127fb6127f66127f184612129565b6125d7565b61203e565b9050919050565b61280b816127e0565b82525050565b600060a08201905061282660008301886120d3565b61283360208301876120d3565b61284060408301866127d1565b61284d6060830185612802565b818103608083015261285f818461238f565b90509695505050505050565b7f4e487b7100000000000000000000000000000000000000000000000000000000600052603260045260246000fd5b7f4e487b7100000000000000000000000000000000000000000000000000000000600052601160045260246000fd5b60006128d48261232d565b91506128df8361232d565b9250828203905060ff8111156128f8576128f761289a565b5b92915050565b60006129098261232d565b91506129148361232d565b9250828201905060ff81111561292d5761292c61289a565b5b92915050565b600082825260208201905092915050565b7f6d696e206f776e65722069732074776f00000000000000000000000000000000600082015250565b600061297a601083612933565b915061298582612944565b602082019050919050565b600060208201905081810360008301526129a98161296d565b9050919050565b7f6e756d436f6e6669726d5265717569726520697320696e76616c696400000000600082015250565b60006129e6601c83612933565b91506129f1826129b0565b602082019050919050565b60006020820190508181036000830152612a15816129d9565b9050919050565b7f4e487b7100000000000000000000000000000000000000000000000000000000600052601260045260246000fd5b6000612a568261232d565b9150612a618361232d565b925082612a7157612a70612a1c565b5b828206905092915050565b6000612a878261232d565b9150612a928361232d565b925082612aa257612aa1612a1c565b5b828204905092915050565b6000612ab88261203e565b9150612ac38361203e565b9250828201905080821115612adb57612ada61289a565b5b92915050565b600060c082019050612af660008301896120d3565b612b0360208301886127d1565b8181036040830152612b15818761238f565b9050612b24606083018661233a565b612b316080830185612802565b612b3e60a08301846123d4565b979650505050505050565b7f666f726d20646f6573206e6f7420657869737400000000000000000000000000600082015250565b6000612b7f601383612933565b9150612b8a82612b49565b602082019050919050565b60006020820190508181036000830152612bae81612b72565b9050919050565b7f666f726d20646f73206578706972656400000000000000000000000000000000600082015250565b6000612beb601083612933565b9150612bf682612bb5565b602082019050919050565b60006020820190508181036000830152612c1a81612bde565b9050919050565b7f747820616c726561647920636f6e6669726d6564000000000000000000000000600082015250565b6000612c57601483612933565b9150612c6282612c21565b602082019050919050565b60006020820190508181036000830152612c8681612c4a565b9050919050565b6000612c988261232d565b915060ff8203612cab57612caa61289a565b5b600182019050919050565b6000604082019050612ccb60008301856127d1565b612cd860208301846120d3565b9392505050565b7f747820646f6573206e6f74206578697374000000000000000000000000000000600082015250565b6000612d15601183612933565b9150612d2082612cdf565b602082019050919050565b60006020820190508181036000830152612d4481612d08565b9050919050565b7f747820616c726561647920657863757465640000000000000000000000000000600082015250565b6000612d81601283612933565b9150612d8c82612d4b565b602082019050919050565b60006020820190508181036000830152612db081612d74565b9050919050565b7f7478206e6f7420636f6e6669726d656400000000000000000000000000000000600082015250565b6000612ded601083612933565b9150612df882612db7565b602082019050919050565b60006020820190508181036000830152612e1c81612de0565b9050919050565b7f6973206e6f7420636f6e6669726d20666f726d00000000000000000000000000600082015250565b6000612e59601383612933565b9150612e6482612e23565b602082019050919050565b60006020820190508181036000830152612e8881612e4c565b9050919050565b6000612e9a8261232d565b915060008203612ead57612eac61289a565b5b600182039050919050565b7f61646472657373206e6f742076616c6964000000000000000000000000000000600082015250565b6000612eee601183612933565b9150612ef982612eb8565b602082019050919050565b60006020820190508181036000830152612f1d81612ee1565b9050919050565b6000606082019050612f3960008301866127d1565b612f4660208301856120d3565b612f5360408301846120d3565b949350505050565b7f63616e6e6f742065786563757465207478000000000000000000000000000000600082015250565b6000612f91601183612933565b9150612f9c82612f5b565b602082019050919050565b60006020820190508181036000830152612fc081612f84565b9050919050565b600081905092915050565b60008154612fdf81612522565b612fe98186612fc7565b9450600182166000811461300457600181146130195761304c565b60ff198316865281151582028601935061304c565b61302285612553565b60005b8381101561304457815481890152600182019150602081019050613025565b838801955050505b50505092915050565b60006130618284612fd2565b915081905092915050565b7f7478206661696c65640000000000000000000000000000000000000000000000600082015250565b60006130a2600983612933565b91506130ad8261306c565b602082019050919050565b600060208201905081810360008301526130d181613095565b9050919050565b60006130e38261203e565b91507fffffffffffffffffffffffffffffffffffffffffffffffffffffffffffffffff82036131155761311461289a565b5b60018201905091905056fea264697066735822122025f0c330d2417dea36def08b50f5b2f38734f5689eb3495d4f42bfb86358986164736f6c63430008110033",
  "immutableReferences": {},
  "source": "// SPDX-License-Identifier: MIT\r\npragma solidity ^0.8.17;\r\n\r\ncontract MultiSigWallet {\r\n    event Deposit(address sender, uint256 amount, uint256 balance);\r\n    event ExcuteTransaction(uint256 txId, address owner);\r\n    event RevokeConfirmation(uint256 txId, address owner);\r\n    event ConfirmTransaction(uint256 txId, address owner);\r\n    event ConfirmOwnerForm(uint256 txId, address owner);\r\n    event RevokeOwnerFormConfirmation(uint256 txId, address owner);\r\n    event ExcuteOwnerForm(uint256 formId, address owner, address suggesOwner);\r\n    event SubmitTransaction(\r\n        address owner,\r\n        address to,\r\n        uint256 txId,\r\n        uint256 value,\r\n        bytes data\r\n    );\r\n    event SubmitOwnerForm(\r\n        address suggesOwner,\r\n        uint256 txId,\r\n        bytes desc,\r\n        uint8 numConfirmationsRequired,\r\n        uint256 expireTime,\r\n        bool isRemovedOwner\r\n    );\r\n\r\n    address[] public owners;\r\n    uint8 public numConfirmationsRequired;\r\n    struct Transaction {\r\n        address to;\r\n        uint64 value;\r\n        uint8 numConfirmations;\r\n        bytes data;\r\n        bool executed;\r\n    }\r\n    struct ownerForm {\r\n        bytes desc;\r\n        uint8 numConfirmation;\r\n        uint8 numConfirmationsRequired;\r\n        uint64 expireTime;\r\n        bool isRemoveOwner;\r\n        bool isExpire;\r\n        address ownerAddress;\r\n    }\r\n    mapping(address => bool) isOwner;\r\n    // mapping from tx index => owner => bool\r\n    mapping(uint256 => mapping(address => bool)) isConfirm;\r\n    mapping(uint256 => mapping(address => bool)) isConfirmOwnerForm;\r\n    Transaction[] transactions;\r\n    ownerForm[] ownerForms;\r\n\r\n    modifier onlyOwner(address owner) {\r\n        require(isOwner[owner]);\r\n        _;\r\n    }\r\n    modifier isNotConfirm(uint256 txId) {\r\n        require(!isConfirm[txId][msg.sender], \"tx already confirmed\");\r\n        _;\r\n    }\r\n    modifier isNotExcute(uint256 txId) {\r\n        require(!transactions[txId].executed, \"tx already excuted\");\r\n        _;\r\n    }\r\n    modifier isExistTransaction(uint256 txIndex) {\r\n        require(transactions.length <= txIndex, \"tx does not exist\");\r\n        _;\r\n    }\r\n    modifier isExistForm(uint256 _formId) {\r\n        require(ownerForms.length <= _formId, \"form does not exist\");\r\n        _;\r\n    }\r\n    modifier isNotConfirmOwnerForm(uint256 _formId) {\r\n        require(\r\n            !isConfirmOwnerForm[_formId][msg.sender],\r\n            \"tx already confirmed\"\r\n        );\r\n        _;\r\n    }\r\n    modifier isNotExpireForm(uint256 _formId) {\r\n        uint64 nowTime = uint64((block.timestamp) + 1 weeks);\r\n        require(\r\n            nowTime < ownerForms[_formId].expireTime &&\r\n                !ownerForms[_formId].isExpire,\r\n            \"form dos expired\"\r\n        );\r\n        _;\r\n    }\r\n    modifier isValidNumConfirmaionRequired(\r\n        uint8 _numConfirmRequire,\r\n        bool isRemoved\r\n    ) {\r\n        uint8 ownersNum;\r\n        uint8 minConfrimation;\r\n        if (isRemoved) {\r\n            ownersNum = uint8(owners.length) - 1;\r\n        } else {\r\n            ownersNum = uint8(owners.length) + 1;\r\n        }\r\n        require(ownersNum >= 2, \"min owner is two\");\r\n        require(\r\n            ownersNum >= _numConfirmRequire && _numConfirmRequire > 1,\r\n            \"numConfirmRequire is invalid\"\r\n        );\r\n        uint8 num = ownersNum % 2;\r\n\r\n        if (num == 0) {\r\n            minConfrimation = (ownersNum / 2) + 1;\r\n        } else {\r\n            minConfrimation = (ownersNum + 1) / 2;\r\n        }\r\n        require(\r\n            _numConfirmRequire >= minConfrimation &&\r\n                _numConfirmRequire <= ownersNum,\r\n            \"numConfirmRequire is invalid\"\r\n        );\r\n        _;\r\n    }\r\n\r\n    constructor(address[] memory _owners, uint8 _numConfirmationRequired) {\r\n        require(_owners.length > 1, \"owners required\");\r\n        require(\r\n            _numConfirmationRequired <= _owners.length &&\r\n                _numConfirmationRequired > 0,\r\n            \"invalid number of required confirmations\"\r\n        );\r\n        for (uint256 i = 0; i < _owners.length; i++) {\r\n            address owner = _owners[i];\r\n            require(owner != address(0), \"invalid owner\");\r\n            require(!isOwner[owner], \"owner not unique\");\r\n            isOwner[owner] = true;\r\n            owners.push(owner);\r\n        }\r\n        numConfirmationsRequired = _numConfirmationRequired;\r\n    }\r\n\r\n    function submitTransaction(\r\n        address _to,\r\n        uint64 _value,\r\n        bytes memory _data\r\n    ) public onlyOwner(msg.sender) {\r\n        uint256 txId = transactions.length;\r\n        transactions.push(\r\n            Transaction({\r\n                to: _to,\r\n                value: _value,\r\n                data: _data,\r\n                executed: false,\r\n                numConfirmations: 0\r\n            })\r\n        );\r\n        emit SubmitTransaction(msg.sender, _to, txId, _value, _data);\r\n    }\r\n\r\n    function confirmTransaction(uint256 _txId)\r\n        public\r\n        onlyOwner(msg.sender)\r\n        isExistTransaction(_txId)\r\n        isNotExcute(_txId)\r\n        isNotConfirm(_txId)\r\n    {\r\n        Transaction storage transaction = transactions[_txId];\r\n        transaction.numConfirmations += 1;\r\n        isConfirm[_txId][msg.sender] = true;\r\n        emit ConfirmTransaction(_txId, msg.sender);\r\n        if (transaction.numConfirmations >= numConfirmationsRequired) {\r\n            _excuteTransaction(_txId);\r\n        }\r\n    }\r\n\r\n    function revokeTransaction(uint256 _txId)\r\n        public\r\n        onlyOwner(msg.sender)\r\n        isExistTransaction(_txId)\r\n        isNotExcute(_txId)\r\n    {\r\n        require(isConfirm[_txId][msg.sender], \"tx not confirmed\");\r\n        Transaction storage transaction = transactions[_txId];\r\n        transaction.numConfirmations -= 1;\r\n        isConfirm[_txId][msg.sender] = false;\r\n        emit RevokeConfirmation(_txId, msg.sender);\r\n    }\r\n\r\n    function _excuteTransaction(uint256 _txId)\r\n        private\r\n        onlyOwner(msg.sender)\r\n        isExistTransaction(_txId)\r\n        isNotExcute(_txId)\r\n    {\r\n        Transaction storage transaction = transactions[_txId];\r\n        require(\r\n            transaction.numConfirmations >= numConfirmationsRequired,\r\n            \"cannot execute tx\"\r\n        );\r\n        transaction.executed = true;\r\n        (bool success, ) = transaction.to.call{value: transaction.value}(\r\n            transaction.data\r\n        );\r\n        require(success, \"tx failed\");\r\n        emit ExcuteTransaction(_txId, msg.sender);\r\n    }\r\n\r\n    function getTransaction(uint256 _txId)\r\n        public\r\n        view\r\n        returns (\r\n            address to,\r\n            uint64 value,\r\n            uint8 numConfirmation,\r\n            bytes memory data,\r\n            bool excuted\r\n        )\r\n    {\r\n        Transaction memory transaction = transactions[_txId];\r\n        return (\r\n            transaction.to,\r\n            transaction.value,\r\n            transaction.numConfirmations,\r\n            transaction.data,\r\n            transaction.executed\r\n        );\r\n    }\r\n\r\n    function submitOwnerForm(\r\n        bytes memory _desc,\r\n        uint8 _suggNumConfirmRequired,\r\n        address _suggesOwnerAddress\r\n    )\r\n        public\r\n        onlyOwner(msg.sender)\r\n        isValidNumConfirmaionRequired(_suggNumConfirmRequired, false)\r\n    {\r\n        require(_suggesOwnerAddress != address(0), \"address not valid\");\r\n        uint256 id = ownerForms.length;\r\n        uint64 expireTime = uint64((block.timestamp) + 1 weeks);\r\n        ownerForms.push(\r\n            ownerForm({\r\n                desc: _desc,\r\n                numConfirmationsRequired: _suggNumConfirmRequired,\r\n                numConfirmation: 0,\r\n                expireTime: expireTime,\r\n                ownerAddress: _suggesOwnerAddress,\r\n                isExpire: false,\r\n                isRemoveOwner: false\r\n            })\r\n        );\r\n\r\n        emit SubmitOwnerForm(\r\n            _suggesOwnerAddress,\r\n            id,\r\n            _desc,\r\n            _suggNumConfirmRequired,\r\n            expireTime,\r\n            false\r\n        );\r\n    }\r\n\r\n    function submitRemovedOwerForm(\r\n        bytes memory _desc,\r\n        uint8 _suggNumConfirmRequired,\r\n        address _removedOwnerAddress\r\n    )\r\n        public\r\n        onlyOwner(msg.sender)\r\n        onlyOwner(_removedOwnerAddress)\r\n        isValidNumConfirmaionRequired(_suggNumConfirmRequired, true)\r\n    {\r\n        uint256 id = ownerForms.length;\r\n        uint64 expireTime = uint64((block.timestamp) + 1 weeks);\r\n        ownerForms.push(\r\n            ownerForm({\r\n                desc: _desc,\r\n                numConfirmationsRequired: _suggNumConfirmRequired,\r\n                numConfirmation: 0,\r\n                expireTime: expireTime,\r\n                ownerAddress: _removedOwnerAddress,\r\n                isExpire: false,\r\n                isRemoveOwner: true\r\n            })\r\n        );\r\n\r\n        emit SubmitOwnerForm(\r\n            _removedOwnerAddress,\r\n            id,\r\n            _desc,\r\n            _suggNumConfirmRequired,\r\n            expireTime,\r\n            true\r\n        );\r\n    }\r\n\r\n    function confirmOwnerForm(uint256 _formId)\r\n        public\r\n        onlyOwner(msg.sender)\r\n        isExistForm(_formId)\r\n        isNotExpireForm(_formId)\r\n        isNotConfirmOwnerForm(_formId)\r\n    {\r\n        ownerForm storage form = ownerForms[_formId];\r\n        form.numConfirmation++;\r\n        isConfirmOwnerForm[_formId][msg.sender] = true;\r\n        emit ConfirmOwnerForm(_formId, msg.sender);\r\n        if (form.numConfirmation >= numConfirmationsRequired) {\r\n            _excuteOwnerForm(_formId);\r\n        }\r\n    }\r\n\r\n    function revokeOwnerForm(uint256 _formId)\r\n        public\r\n        onlyOwner(msg.sender)\r\n        isExistForm(_formId)\r\n        isNotExpireForm(_formId)\r\n    {\r\n        require(isConfirmOwnerForm[_formId][msg.sender], \"is not confirm form\");\r\n        ownerForm storage form = ownerForms[_formId];\r\n        form.numConfirmation--;\r\n        isConfirmOwnerForm[_formId][msg.sender] = false;\r\n        emit RevokeOwnerFormConfirmation(_formId, msg.sender);\r\n    }\r\n\r\n    function _excuteOwnerForm(uint256 _formId) private {\r\n        ownerForm storage form = ownerForms[_formId];\r\n        form.isExpire = true;\r\n        numConfirmationsRequired = form.numConfirmationsRequired;\r\n        if (form.isRemoveOwner) {\r\n            _deleteOwner(form.ownerAddress);\r\n        } else {\r\n            owners.push(form.ownerAddress);\r\n        }\r\n        emit ExcuteOwnerForm(_formId, msg.sender, form.ownerAddress);\r\n    }\r\n\r\n    function _deleteOwner(address _owner) private {\r\n        for (uint256 i = 0; i < owners.length; i++) {\r\n            if (owners[i] == _owner) {\r\n                delete owners[i];\r\n                return;\r\n            }\r\n        }\r\n    }\r\n}\r\n",
  "sourcePath": "F:\\Multi Signature wallet\\contracts\\MultiSigWallet .sol",
  "compiler": {
    "name": "solc",
    "version": "0.8.17+commit.8df45f5f.Emscripten.clang"
  },
  "schemaVersion": "3.4.10",
  "updatedAt": "2022-12-17T18:51:11.119Z",
  "devdoc": {
    "kind": "dev",
    "methods": {},
    "version": 1
  },
  "userdoc": {
    "kind": "user",
    "methods": {},
    "version": 1
  }
}